{
  "contractName": "ZombieFactory",
  "abi": [
    {
      "inputs": [],
      "stateMutability": "nonpayable",
      "type": "constructor"
    },
    {
      "anonymous": false,
      "inputs": [
        {
          "indexed": false,
          "internalType": "uint256",
          "name": "zombieId",
          "type": "uint256"
        },
        {
          "indexed": false,
          "internalType": "string",
          "name": "name",
          "type": "string"
        },
        {
          "indexed": false,
          "internalType": "uint256",
          "name": "dna",
          "type": "uint256"
        }
      ],
      "name": "NewZombie",
      "type": "event"
    },
    {
      "anonymous": false,
      "inputs": [
        {
          "indexed": true,
          "internalType": "address",
          "name": "previousOwner",
          "type": "address"
        },
        {
          "indexed": true,
          "internalType": "address",
          "name": "newOwner",
          "type": "address"
        }
      ],
      "name": "OwnershipTransferred",
      "type": "event"
    },
    {
      "inputs": [],
      "name": "fee",
      "outputs": [
        {
          "internalType": "uint256",
          "name": "",
          "type": "uint256"
        }
      ],
      "stateMutability": "view",
      "type": "function"
    },
    {
      "inputs": [],
      "name": "keyHash",
      "outputs": [
        {
          "internalType": "bytes32",
          "name": "",
          "type": "bytes32"
        }
      ],
      "stateMutability": "view",
      "type": "function"
    },
    {
      "inputs": [],
      "name": "owner",
      "outputs": [
        {
          "internalType": "address",
          "name": "",
          "type": "address"
        }
      ],
      "stateMutability": "view",
      "type": "function"
    },
    {
      "inputs": [],
      "name": "randomResult",
      "outputs": [
        {
          "internalType": "uint256",
          "name": "",
          "type": "uint256"
        }
      ],
      "stateMutability": "view",
      "type": "function"
    },
    {
      "inputs": [
        {
          "internalType": "bytes32",
          "name": "requestId",
          "type": "bytes32"
        },
        {
          "internalType": "uint256",
          "name": "randomness",
          "type": "uint256"
        }
      ],
      "name": "rawFulfillRandomness",
      "outputs": [],
      "stateMutability": "nonpayable",
      "type": "function"
    },
    {
      "inputs": [],
      "name": "renounceOwnership",
      "outputs": [],
      "stateMutability": "nonpayable",
      "type": "function"
    },
    {
      "inputs": [
        {
          "internalType": "address",
          "name": "newOwner",
          "type": "address"
        }
      ],
      "name": "transferOwnership",
      "outputs": [],
      "stateMutability": "nonpayable",
      "type": "function"
    },
    {
      "inputs": [
        {
          "internalType": "uint256",
          "name": "",
          "type": "uint256"
        }
      ],
      "name": "zombieToOwner",
      "outputs": [
        {
          "internalType": "address",
          "name": "",
          "type": "address"
        }
      ],
      "stateMutability": "view",
      "type": "function"
    },
    {
      "inputs": [
        {
          "internalType": "uint256",
          "name": "",
          "type": "uint256"
        }
      ],
      "name": "zombies",
      "outputs": [
        {
          "internalType": "string",
          "name": "name",
          "type": "string"
        },
        {
          "internalType": "uint256",
          "name": "dna",
          "type": "uint256"
        },
        {
          "internalType": "uint32",
          "name": "level",
          "type": "uint32"
        },
        {
          "internalType": "uint32",
          "name": "readyTime",
          "type": "uint32"
        },
        {
          "internalType": "uint16",
          "name": "winCount",
          "type": "uint16"
        },
        {
          "internalType": "uint16",
          "name": "lossCount",
          "type": "uint16"
        }
      ],
      "stateMutability": "view",
      "type": "function"
    },
    {
      "inputs": [],
      "name": "getRandomNumber",
      "outputs": [
        {
          "internalType": "bytes32",
          "name": "requestId",
          "type": "bytes32"
        }
      ],
      "stateMutability": "nonpayable",
      "type": "function"
    },
    {
      "inputs": [
        {
          "internalType": "string",
          "name": "_name",
          "type": "string"
        }
      ],
      "name": "createRandomZombie",
      "outputs": [],
      "stateMutability": "nonpayable",
      "type": "function"
    }
  ],
  "bytecode": "0x60c06040526010600255600254600a6200001a91906200037e565b600355620151806004553480156200003157600080fd5b5073b3dccb4cf7a26f6cf6b120cf5a73875b7bbc655b7301be23585060835e02b77ef475b0cc51aa1e07096200007c620000706200012560201b60201c565b6200012d60201b60201c565b8173ffffffffffffffffffffffffffffffffffffffff1660a08173ffffffffffffffffffffffffffffffffffffffff16815250508073ffffffffffffffffffffffffffffffffffffffff1660808173ffffffffffffffffffffffffffffffffffffffff168152505050507f2ed0feb3e7fd2022120aa84fab1945545a9f2ffc9076fd6156fa96eaff4c131160001b60058190555067016345785d8a0000600681905550620003cf565b600033905090565b60008060009054906101000a900473ffffffffffffffffffffffffffffffffffffffff169050816000806101000a81548173ffffffffffffffffffffffffffffffffffffffff021916908373ffffffffffffffffffffffffffffffffffffffff1602179055508173ffffffffffffffffffffffffffffffffffffffff168173ffffffffffffffffffffffffffffffffffffffff167f8be0079c531659141344cd1fd0a4f28419497f9722a3daafe3b4186f6b6457e060405160405180910390a35050565b7f4e487b7100000000000000000000000000000000000000000000000000000000600052601160045260246000fd5b60008160011c9050919050565b6000808291508390505b60018511156200027f57808604811115620002575762000256620001f1565b5b6001851615620002675780820291505b8081029050620002778562000220565b945062000237565b94509492505050565b6000826200029a57600190506200036d565b81620002aa57600090506200036d565b8160018114620002c35760028114620002ce5762000304565b60019150506200036d565b60ff841115620002e357620002e2620001f1565b5b8360020a915084821115620002fd57620002fc620001f1565b5b506200036d565b5060208310610133831016604e8410600b84101617156200033e5782820a905083811115620003385762000337620001f1565b5b6200036d565b6200034d84848460016200022d565b92509050818404811115620003675762000366620001f1565b5b81810290505b9392505050565b6000819050919050565b60006200038b8262000374565b9150620003988362000374565b9250620003c77fffffffffffffffffffffffffffffffffffffffffffffffffffffffffffffffff848462000288565b905092915050565b60805160a051611655620003fc6000396000818161048a0152610a02015260006109c601526116556000f3fe608060405234801561001057600080fd5b50600436106100a95760003560e01c80637bff0a01116100715780637bff0a01146101595780638da5cb5b1461017557806394985ddd14610193578063dbdff2c1146101af578063ddca3f43146101cd578063f2fde38b146101eb576100a9565b80632052465e146100ae57806342619f66146100e3578063528b7b8f1461010157806361728f3914610131578063715018a61461014f575b600080fd5b6100c860048036038101906100c39190610c70565b610207565b6040516100da96959493929190610d81565b60405180910390f35b6100eb610317565b6040516100f89190610de9565b60405180910390f35b61011b60048036038101906101169190610c70565b61031d565b6040516101289190610e45565b60405180910390f35b610139610350565b6040516101469190610e79565b60405180910390f35b610157610356565b005b610173600480360381019061016e9190610fc9565b6103de565b005b61017d61045f565b60405161018a9190610e45565b60405180910390f35b6101ad60048036038101906101a8919061103e565b610488565b005b6101b7610524565b6040516101c49190610e79565b60405180910390f35b6101d5610539565b6040516101e29190610de9565b60405180910390f35b610205600480360381019061020091906110aa565b61053f565b005b6008818154811061021757600080fd5b906000526020600020906003020160009150905080600001805461023a90611106565b80601f016020809104026020016040519081016040528092919081815260200182805461026690611106565b80156102b35780601f10610288576101008083540402835291602001916102b3565b820191906000526020600020905b81548152906001019060200180831161029657829003601f168201915b5050505050908060010154908060020160009054906101000a900463ffffffff16908060020160049054906101000a900463ffffffff16908060020160089054906101000a900461ffff169080600201600a9054906101000a900461ffff16905086565b60075481565b60096020528060005260406000206000915054906101000a900473ffffffffffffffffffffffffffffffffffffffff1681565b60055481565b61035e610636565b73ffffffffffffffffffffffffffffffffffffffff1661037c61045f565b73ffffffffffffffffffffffffffffffffffffffff16146103d2576040517f08c379a00000000000000000000000000000000000000000000000000000000081526004016103c990611183565b60405180910390fd5b6103dc600061063e565b565b6000600a60003373ffffffffffffffffffffffffffffffffffffffff1673ffffffffffffffffffffffffffffffffffffffff168152602001908152602001600020541461042a57600080fd5b600061043582610702565b905060648161044491906111d2565b8161044f9190611232565b905061045b8282610747565b5050565b60008060009054906101000a900473ffffffffffffffffffffffffffffffffffffffff16905090565b7f000000000000000000000000000000000000000000000000000000000000000073ffffffffffffffffffffffffffffffffffffffff163373ffffffffffffffffffffffffffffffffffffffff1614610516576040517f08c379a000000000000000000000000000000000000000000000000000000000815260040161050d906112b2565b60405180910390fd5b61052082826109b7565b5050565b60006105346005546006546109c2565b905090565b60065481565b610547610636565b73ffffffffffffffffffffffffffffffffffffffff1661056561045f565b73ffffffffffffffffffffffffffffffffffffffff16146105bb576040517f08c379a00000000000000000000000000000000000000000000000000000000081526004016105b290611183565b60405180910390fd5b600073ffffffffffffffffffffffffffffffffffffffff168173ffffffffffffffffffffffffffffffffffffffff160361062a576040517f08c379a000000000000000000000000000000000000000000000000000000000815260040161062190611344565b60405180910390fd5b6106338161063e565b50565b600033905090565b60008060009054906101000a900473ffffffffffffffffffffffffffffffffffffffff169050816000806101000a81548173ffffffffffffffffffffffffffffffffffffffff021916908373ffffffffffffffffffffffffffffffffffffffff1602179055508173ffffffffffffffffffffffffffffffffffffffff168173ffffffffffffffffffffffffffffffffffffffff167f8be0079c531659141344cd1fd0a4f28419497f9722a3daafe3b4186f6b6457e060405160405180910390a35050565b6000808260405160200161071691906113a0565b6040516020818303038152906040528051906020012060001c90506003548161073f91906111d2565b915050919050565b60086040518060c00160405280848152602001838152602001600163ffffffff1681526020016004544261077b91906113b7565b63ffffffff168152602001600061ffff168152602001600061ffff16815250908060018154018082558091505060019003906000526020600020906003020160009091909190915060008201518160000190805190602001906107df929190610b83565b506020820151816001015560408201518160020160006101000a81548163ffffffff021916908363ffffffff16021790555060608201518160020160046101000a81548163ffffffff021916908363ffffffff16021790555060808201518160020160086101000a81548161ffff021916908361ffff16021790555060a082015181600201600a6101000a81548161ffff021916908361ffff1602179055505050600060016008805490506108949190611232565b9050336009600083815260200190815260200160002060006101000a81548173ffffffffffffffffffffffffffffffffffffffff021916908373ffffffffffffffffffffffffffffffffffffffff1602179055506001600a60003373ffffffffffffffffffffffffffffffffffffffff1673ffffffffffffffffffffffffffffffffffffffff1681526020019081526020016000205461093491906113b7565b600a60003373ffffffffffffffffffffffffffffffffffffffff1673ffffffffffffffffffffffffffffffffffffffff168152602001908152602001600020819055507f88f026aacbbecc90c18411df4b1185fd8d9be2470f1962f192bf84a27d0704b78184846040516109aa9392919061140d565b60405180910390a1505050565b806007819055505050565b60007f000000000000000000000000000000000000000000000000000000000000000073ffffffffffffffffffffffffffffffffffffffff16634000aea07f000000000000000000000000000000000000000000000000000000000000000084866000604051602001610a3692919061144b565b6040516020818303038152906040526040518463ffffffff1660e01b8152600401610a63939291906114c9565b6020604051808303816000875af1158015610a82573d6000803e3d6000fd5b505050506040513d601f19601f82011682018060405250810190610aa6919061153f565b506000610ac9846000306001600089815260200190815260200160002054610b14565b9050600180600086815260200190815260200160002054610aea91906113b7565b6001600086815260200190815260200160002081905550610b0b8482610b50565b91505092915050565b600084848484604051602001610b2d949392919061156c565b6040516020818303038152906040528051906020012060001c9050949350505050565b60008282604051602001610b659291906115f3565b60405160208183030381529060405280519060200120905092915050565b828054610b8f90611106565b90600052602060002090601f016020900481019282610bb15760008555610bf8565b82601f10610bca57805160ff1916838001178555610bf8565b82800160010185558215610bf8579182015b82811115610bf7578251825591602001919060010190610bdc565b5b509050610c059190610c09565b5090565b5b80821115610c22576000816000905550600101610c0a565b5090565b6000604051905090565b600080fd5b600080fd5b6000819050919050565b610c4d81610c3a565b8114610c5857600080fd5b50565b600081359050610c6a81610c44565b92915050565b600060208284031215610c8657610c85610c30565b5b6000610c9484828501610c5b565b91505092915050565b600081519050919050565b600082825260208201905092915050565b60005b83811015610cd7578082015181840152602081019050610cbc565b83811115610ce6576000848401525b50505050565b6000601f19601f8301169050919050565b6000610d0882610c9d565b610d128185610ca8565b9350610d22818560208601610cb9565b610d2b81610cec565b840191505092915050565b610d3f81610c3a565b82525050565b600063ffffffff82169050919050565b610d5e81610d45565b82525050565b600061ffff82169050919050565b610d7b81610d64565b82525050565b600060c0820190508181036000830152610d9b8189610cfd565b9050610daa6020830188610d36565b610db76040830187610d55565b610dc46060830186610d55565b610dd16080830185610d72565b610dde60a0830184610d72565b979650505050505050565b6000602082019050610dfe6000830184610d36565b92915050565b600073ffffffffffffffffffffffffffffffffffffffff82169050919050565b6000610e2f82610e04565b9050919050565b610e3f81610e24565b82525050565b6000602082019050610e5a6000830184610e36565b92915050565b6000819050919050565b610e7381610e60565b82525050565b6000602082019050610e8e6000830184610e6a565b92915050565b600080fd5b600080fd5b7f4e487b7100000000000000000000000000000000000000000000000000000000600052604160045260246000fd5b610ed682610cec565b810181811067ffffffffffffffff82111715610ef557610ef4610e9e565b5b80604052505050565b6000610f08610c26565b9050610f148282610ecd565b919050565b600067ffffffffffffffff821115610f3457610f33610e9e565b5b610f3d82610cec565b9050602081019050919050565b82818337600083830152505050565b6000610f6c610f6784610f19565b610efe565b905082815260208101848484011115610f8857610f87610e99565b5b610f93848285610f4a565b509392505050565b600082601f830112610fb057610faf610e94565b5b8135610fc0848260208601610f59565b91505092915050565b600060208284031215610fdf57610fde610c30565b5b600082013567ffffffffffffffff811115610ffd57610ffc610c35565b5b61100984828501610f9b565b91505092915050565b61101b81610e60565b811461102657600080fd5b50565b60008135905061103881611012565b92915050565b6000806040838503121561105557611054610c30565b5b600061106385828601611029565b925050602061107485828601610c5b565b9150509250929050565b61108781610e24565b811461109257600080fd5b50565b6000813590506110a48161107e565b92915050565b6000602082840312156110c0576110bf610c30565b5b60006110ce84828501611095565b91505092915050565b7f4e487b7100000000000000000000000000000000000000000000000000000000600052602260045260246000fd5b6000600282049050600182168061111e57607f821691505b602082108103611131576111306110d7565b5b50919050565b7f4f776e61626c653a2063616c6c6572206973206e6f7420746865206f776e6572600082015250565b600061116d602083610ca8565b915061117882611137565b602082019050919050565b6000602082019050818103600083015261119c81611160565b9050919050565b7f4e487b7100000000000000000000000000000000000000000000000000000000600052601260045260246000fd5b60006111dd82610c3a565b91506111e883610c3a565b9250826111f8576111f76111a3565b5b828206905092915050565b7f4e487b7100000000000000000000000000000000000000000000000000000000600052601160045260246000fd5b600061123d82610c3a565b915061124883610c3a565b92508282101561125b5761125a611203565b5b828203905092915050565b7f4f6e6c7920565246436f6f7264696e61746f722063616e2066756c66696c6c00600082015250565b600061129c601f83610ca8565b91506112a782611266565b602082019050919050565b600060208201905081810360008301526112cb8161128f565b9050919050565b7f4f776e61626c653a206e6577206f776e657220697320746865207a65726f206160008201527f6464726573730000000000000000000000000000000000000000000000000000602082015250565b600061132e602683610ca8565b9150611339826112d2565b604082019050919050565b6000602082019050818103600083015261135d81611321565b9050919050565b600081905092915050565b600061137a82610c9d565b6113848185611364565b9350611394818560208601610cb9565b80840191505092915050565b60006113ac828461136f565b915081905092915050565b60006113c282610c3a565b91506113cd83610c3a565b9250827fffffffffffffffffffffffffffffffffffffffffffffffffffffffffffffffff0382111561140257611401611203565b5b828201905092915050565b60006060820190506114226000830186610d36565b81810360208301526114348185610cfd565b90506114436040830184610d36565b949350505050565b60006040820190506114606000830185610e6a565b61146d6020830184610d36565b9392505050565b600081519050919050565b600082825260208201905092915050565b600061149b82611474565b6114a5818561147f565b93506114b5818560208601610cb9565b6114be81610cec565b840191505092915050565b60006060820190506114de6000830186610e36565b6114eb6020830185610d36565b81810360408301526114fd8184611490565b9050949350505050565b60008115159050919050565b61151c81611507565b811461152757600080fd5b50565b60008151905061153981611513565b92915050565b60006020828403121561155557611554610c30565b5b60006115638482850161152a565b91505092915050565b60006080820190506115816000830187610e6a565b61158e6020830186610d36565b61159b6040830185610e36565b6115a86060830184610d36565b95945050505050565b6000819050919050565b6115cc6115c782610e60565b6115b1565b82525050565b6000819050919050565b6115ed6115e882610c3a565b6115d2565b82525050565b60006115ff82856115bb565b60208201915061160f82846115dc565b602082019150819050939250505056fea26469706673582212203e96a2d053f3e7ef6105e124d248a3df18516348bb3d7ef4657e9dc661c859c164736f6c634300080d0033",
  "immutableReferences": {
    "73": [
      {
        "length": 32,
        "start": 2502
      }
    ],
    "75": [
      {
        "length": 32,
        "start": 1162
      },
      {
        "length": 32,
        "start": 2562
      }
    ]
  },
  "source": "// SPDX-License-Identifier: UNLICENSED\npragma solidity >=0.8.0 <0.9.0;\n\nimport \"./Ownable.sol\";\nimport \"@chainlink/contracts/src/v0.8/VRFConsumerBase.sol\";\n\ncontract ZombieFactory is Ownable, VRFConsumerBase {\n\n  event NewZombie(uint zombieId, string name, uint dna);\n\n  uint dnaDigits = 16;\n  uint dnaModulus = 10 ** dnaDigits;\n  uint cooldownTime = 1 days;\n\n  // using chainlink\n  bytes32 public keyHash;\n  uint256 public fee;\n  uint256 public randomResult;\n  \n  // non need  to have constructor public, it's called only once at a creation\n  constructor() VRFConsumerBase(\n      0xb3dCcb4Cf7a26f6cf6B120Cf5A73875B7BBc655B, // VRF Coordinator\n      0x01BE23585060835E02B77ef475b0Cc51aA1e0709  // LINK Token\n      \n  ){\n      keyHash = 0x2ed0feb3e7fd2022120aa84fab1945545a9f2ffc9076fd6156fa96eaff4c1311;\n      fee = 100000000000000000;\n  }\n\n  struct Zombie {\n    string name;\n    uint dna;\n    uint32 level;\n    uint32 readyTime;\n    uint16 winCount;\n    uint16 lossCount;\n  }\n\n  Zombie[] public zombies;\n\n  mapping (uint => address) public zombieToOwner;\n  mapping (address => uint) ownerZombieCount;\n\n  function _createZombie(string memory _name, uint _dna) internal {\n    // after 0.6.0 push no longer return the length, instead return the reference to the added element\n    zombies.push(Zombie(_name, _dna, 1, uint32(block.timestamp + cooldownTime), 0, 0));\n    uint id = zombies.length - 1;\n    zombieToOwner[id] = msg.sender;\n    ownerZombieCount[msg.sender] = ownerZombieCount[msg.sender] + 1;\n    emit NewZombie(id, _name, _dna);\n  }\n  \n  function getRandomNumber() public returns (bytes32 requestId) {\n    return requestRandomness(keyHash, fee);\n  }\n\n  function fulfillRandomness(bytes32, uint256 randomness) internal override {\n    randomResult = randomness;\n  }\n\n  function _generateRandomDna(string memory _str) private view returns (uint) {\n    uint rand = uint(keccak256(abi.encodePacked(_str)));\n    return rand % dnaModulus;\n  }\n\n  function createRandomZombie(string memory _name) public {\n    require(ownerZombieCount[msg.sender] == 0);\n    uint randDna = _generateRandomDna(_name);\n    randDna = randDna - randDna % 100;\n    _createZombie(_name, randDna);\n  }\n\n}\n",
  "sourcePath": "/Users/michaelwon/Documents/Side-Project/CryptoZombies/contracts/ZombieFactory.sol",
  "compiler": {
    "name": "solc",
    "version": "0.8.13+commit.abaa5c0e.Emscripten.clang"
  },
  "schemaVersion": "3.4.6",
  "updatedAt": "2022-04-16T09:13:55.142Z",
  "devdoc": {
    "kind": "dev",
    "methods": {
      "owner()": {
        "details": "Returns the address of the current owner."
      },
      "renounceOwnership()": {
        "details": "Leaves the contract without owner. It will not be possible to call `onlyOwner` functions anymore. Can only be called by the current owner. NOTE: Renouncing ownership will leave the contract without an owner, thereby removing any functionality that is only available to the owner."
      },
      "transferOwnership(address)": {
        "details": "Transfers ownership of the contract to a new account (`newOwner`). Can only be called by the current owner."
      }
    },
    "version": 1
  },
  "userdoc": {
    "kind": "user",
    "methods": {},
    "version": 1
  }
}