{
  "contractName": "ZombieFeeding",
  "abi": [
    {
      "anonymous": false,
      "inputs": [
        {
          "indexed": false,
          "internalType": "uint256",
          "name": "zombieId",
          "type": "uint256"
        },
        {
          "indexed": false,
          "internalType": "string",
          "name": "name",
          "type": "string"
        },
        {
          "indexed": false,
          "internalType": "uint256",
          "name": "dna",
          "type": "uint256"
        }
      ],
      "name": "NewZombie",
      "type": "event"
    },
    {
      "anonymous": false,
      "inputs": [
        {
          "indexed": true,
          "internalType": "address",
          "name": "previousOwner",
          "type": "address"
        },
        {
          "indexed": true,
          "internalType": "address",
          "name": "newOwner",
          "type": "address"
        }
      ],
      "name": "OwnershipTransferred",
      "type": "event"
    },
    {
      "inputs": [
        {
          "internalType": "string",
          "name": "_name",
          "type": "string"
        }
      ],
      "name": "createRandomZombie",
      "outputs": [],
      "stateMutability": "nonpayable",
      "type": "function"
    },
    {
      "inputs": [],
      "name": "fee",
      "outputs": [
        {
          "internalType": "uint256",
          "name": "",
          "type": "uint256"
        }
      ],
      "stateMutability": "view",
      "type": "function"
    },
    {
      "inputs": [],
      "name": "getRandomNumber",
      "outputs": [
        {
          "internalType": "bytes32",
          "name": "requestId",
          "type": "bytes32"
        }
      ],
      "stateMutability": "nonpayable",
      "type": "function"
    },
    {
      "inputs": [],
      "name": "keyHash",
      "outputs": [
        {
          "internalType": "bytes32",
          "name": "",
          "type": "bytes32"
        }
      ],
      "stateMutability": "view",
      "type": "function"
    },
    {
      "inputs": [],
      "name": "owner",
      "outputs": [
        {
          "internalType": "address",
          "name": "",
          "type": "address"
        }
      ],
      "stateMutability": "view",
      "type": "function"
    },
    {
      "inputs": [],
      "name": "randomResult",
      "outputs": [
        {
          "internalType": "uint256",
          "name": "",
          "type": "uint256"
        }
      ],
      "stateMutability": "view",
      "type": "function"
    },
    {
      "inputs": [
        {
          "internalType": "bytes32",
          "name": "requestId",
          "type": "bytes32"
        },
        {
          "internalType": "uint256",
          "name": "randomness",
          "type": "uint256"
        }
      ],
      "name": "rawFulfillRandomness",
      "outputs": [],
      "stateMutability": "nonpayable",
      "type": "function"
    },
    {
      "inputs": [],
      "name": "renounceOwnership",
      "outputs": [],
      "stateMutability": "nonpayable",
      "type": "function"
    },
    {
      "inputs": [
        {
          "internalType": "address",
          "name": "newOwner",
          "type": "address"
        }
      ],
      "name": "transferOwnership",
      "outputs": [],
      "stateMutability": "nonpayable",
      "type": "function"
    },
    {
      "inputs": [
        {
          "internalType": "uint256",
          "name": "",
          "type": "uint256"
        }
      ],
      "name": "zombieToOwner",
      "outputs": [
        {
          "internalType": "address",
          "name": "",
          "type": "address"
        }
      ],
      "stateMutability": "view",
      "type": "function"
    },
    {
      "inputs": [
        {
          "internalType": "uint256",
          "name": "",
          "type": "uint256"
        }
      ],
      "name": "zombies",
      "outputs": [
        {
          "internalType": "string",
          "name": "name",
          "type": "string"
        },
        {
          "internalType": "uint256",
          "name": "dna",
          "type": "uint256"
        },
        {
          "internalType": "uint32",
          "name": "level",
          "type": "uint32"
        },
        {
          "internalType": "uint32",
          "name": "readyTime",
          "type": "uint32"
        },
        {
          "internalType": "uint16",
          "name": "winCount",
          "type": "uint16"
        },
        {
          "internalType": "uint16",
          "name": "lossCount",
          "type": "uint16"
        }
      ],
      "stateMutability": "view",
      "type": "function"
    },
    {
      "inputs": [
        {
          "internalType": "address",
          "name": "_address",
          "type": "address"
        }
      ],
      "name": "setKittyContractAddress",
      "outputs": [],
      "stateMutability": "nonpayable",
      "type": "function"
    },
    {
      "inputs": [
        {
          "internalType": "uint256",
          "name": "_zombieId",
          "type": "uint256"
        },
        {
          "internalType": "uint256",
          "name": "_kittyId",
          "type": "uint256"
        }
      ],
      "name": "feedOnKitty",
      "outputs": [],
      "stateMutability": "nonpayable",
      "type": "function"
    }
  ],
  "bytecode": "0x60c06040526010600255600254600a6200001a91906200037e565b600355620151806004553480156200003157600080fd5b5073b3dccb4cf7a26f6cf6b120cf5a73875b7bbc655b7301be23585060835e02b77ef475b0cc51aa1e07096200007c620000706200012560201b60201c565b6200012d60201b60201c565b8173ffffffffffffffffffffffffffffffffffffffff1660a08173ffffffffffffffffffffffffffffffffffffffff16815250508073ffffffffffffffffffffffffffffffffffffffff1660808173ffffffffffffffffffffffffffffffffffffffff168152505050507f2ed0feb3e7fd2022120aa84fab1945545a9f2ffc9076fd6156fa96eaff4c131160001b60058190555067016345785d8a0000600681905550620003cf565b600033905090565b60008060009054906101000a900473ffffffffffffffffffffffffffffffffffffffff169050816000806101000a81548173ffffffffffffffffffffffffffffffffffffffff021916908373ffffffffffffffffffffffffffffffffffffffff1602179055508173ffffffffffffffffffffffffffffffffffffffff168173ffffffffffffffffffffffffffffffffffffffff167f8be0079c531659141344cd1fd0a4f28419497f9722a3daafe3b4186f6b6457e060405160405180910390a35050565b7f4e487b7100000000000000000000000000000000000000000000000000000000600052601160045260246000fd5b60008160011c9050919050565b6000808291508390505b60018511156200027f57808604811115620002575762000256620001f1565b5b6001851615620002675780820291505b8081029050620002778562000220565b945062000237565b94509492505050565b6000826200029a57600190506200036d565b81620002aa57600090506200036d565b8160018114620002c35760028114620002ce5762000304565b60019150506200036d565b60ff841115620002e357620002e2620001f1565b5b8360020a915084821115620002fd57620002fc620001f1565b5b506200036d565b5060208310610133831016604e8410600b84101617156200033e5782820a905083811115620003385762000337620001f1565b5b6200036d565b6200034d84848460016200022d565b92509050818404811115620003675762000366620001f1565b5b81810290505b9392505050565b6000819050919050565b60006200038b8262000374565b9150620003988362000374565b9250620003c77fffffffffffffffffffffffffffffffffffffffffffffffffffffffffffffffff848462000288565b905092915050565b60805160a051611c7c620003fc600039600081816106c60152610dda01526000610d9e0152611c7c6000f3fe608060405234801561001057600080fd5b50600436106100cf5760003560e01c8063715018a61161008c57806394985ddd1161006657806394985ddd146101f1578063dbdff2c11461020d578063ddca3f431461022b578063f2fde38b14610249576100cf565b8063715018a6146101ad5780637bff0a01146101b75780638da5cb5b146101d3576100cf565b806317a7f4cc146100d45780632052465e146100f057806342619f6614610125578063528b7b8f146101435780635f4623f11461017357806361728f391461018f575b600080fd5b6100ee60048036038101906100e991906110a2565b610265565b005b61010a600480360381019061010591906110e2565b610383565b60405161011c969594939291906111f3565b60405180910390f35b61012d610493565b60405161013a919061125b565b60405180910390f35b61015d600480360381019061015891906110e2565b610499565b60405161016a91906112b7565b60405180910390f35b61018d600480360381019061018891906112fe565b6104cc565b005b61019761058c565b6040516101a49190611344565b60405180910390f35b6101b5610592565b005b6101d160048036038101906101cc9190611494565b61061a565b005b6101db61069b565b6040516101e891906112b7565b60405180910390f35b61020b60048036038101906102069190611509565b6106c4565b005b610215610760565b6040516102229190611344565b60405180910390f35b610233610775565b604051610240919061125b565b60405180910390f35b610263600480360381019061025e91906112fe565b61077b565b005b6000600b60009054906101000a900473ffffffffffffffffffffffffffffffffffffffff1673ffffffffffffffffffffffffffffffffffffffff1663e98b7f4d836040518263ffffffff1660e01b81526004016102c2919061125b565b61014060405180830381865afa1580156102e0573d6000803e3d6000fd5b505050506040513d601f19601f820116820180604052508101906103049190611596565b9091929394959697985090919293949596975090919293949596509091929394955090919293945090919293509091925090915090508091505061037e83826040518060400160405280600581526020017f6b69747479000000000000000000000000000000000000000000000000000000815250610872565b505050565b6008818154811061039357600080fd5b90600052602060002090600302016000915090508060000180546103b6906116a4565b80601f01602080910402602001604051908101604052809291908181526020018280546103e2906116a4565b801561042f5780601f106104045761010080835404028352916020019161042f565b820191906000526020600020905b81548152906001019060200180831161041257829003601f168201915b5050505050908060010154908060020160009054906101000a900463ffffffff16908060020160049054906101000a900463ffffffff16908060020160089054906101000a900461ffff169080600201600a9054906101000a900461ffff16905086565b60075481565b60096020528060005260406000206000915054906101000a900473ffffffffffffffffffffffffffffffffffffffff1681565b6104d4610a0e565b73ffffffffffffffffffffffffffffffffffffffff166104f261069b565b73ffffffffffffffffffffffffffffffffffffffff1614610548576040517f08c379a000000000000000000000000000000000000000000000000000000000815260040161053f90611721565b60405180910390fd5b80600b60006101000a81548173ffffffffffffffffffffffffffffffffffffffff021916908373ffffffffffffffffffffffffffffffffffffffff16021790555050565b60055481565b61059a610a0e565b73ffffffffffffffffffffffffffffffffffffffff166105b861069b565b73ffffffffffffffffffffffffffffffffffffffff161461060e576040517f08c379a000000000000000000000000000000000000000000000000000000000815260040161060590611721565b60405180910390fd5b6106186000610a16565b565b6000600a60003373ffffffffffffffffffffffffffffffffffffffff1673ffffffffffffffffffffffffffffffffffffffff168152602001908152602001600020541461066657600080fd5b600061067182610ada565b90506064816106809190611770565b8161068b91906117d0565b90506106978282610b1f565b5050565b60008060009054906101000a900473ffffffffffffffffffffffffffffffffffffffff16905090565b7f000000000000000000000000000000000000000000000000000000000000000073ffffffffffffffffffffffffffffffffffffffff163373ffffffffffffffffffffffffffffffffffffffff1614610752576040517f08c379a000000000000000000000000000000000000000000000000000000000815260040161074990611850565b60405180910390fd5b61075c8282610d8f565b5050565b6000610770600554600654610d9a565b905090565b60065481565b610783610a0e565b73ffffffffffffffffffffffffffffffffffffffff166107a161069b565b73ffffffffffffffffffffffffffffffffffffffff16146107f7576040517f08c379a00000000000000000000000000000000000000000000000000000000081526004016107ee90611721565b60405180910390fd5b600073ffffffffffffffffffffffffffffffffffffffff168173ffffffffffffffffffffffffffffffffffffffff1603610866576040517f08c379a000000000000000000000000000000000000000000000000000000000815260040161085d906118e2565b60405180910390fd5b61086f81610a16565b50565b826009600082815260200190815260200160002060009054906101000a900473ffffffffffffffffffffffffffffffffffffffff1673ffffffffffffffffffffffffffffffffffffffff163373ffffffffffffffffffffffffffffffffffffffff16146108de57600080fd5b6000600885815481106108f4576108f3611902565b5b9060005260206000209060030201905061090d81610eec565b61091657600080fd5b600354846109249190611770565b93506000600285836001015461093a9190611931565b6109449190611987565b905060405160200161095590611a0f565b604051602081830303815290604052805190602001208460405160200161097c9190611a55565b60405160208183030381529060405280519060200120036109be5760636064826109a69190611770565b826109b191906117d0565b6109bb9190611931565b90505b6109fd6040518060400160405280600681526020017f4e6f4e616d65000000000000000000000000000000000000000000000000000081525082610b1f565b610a0682610f13565b505050505050565b600033905090565b60008060009054906101000a900473ffffffffffffffffffffffffffffffffffffffff169050816000806101000a81548173ffffffffffffffffffffffffffffffffffffffff021916908373ffffffffffffffffffffffffffffffffffffffff1602179055508173ffffffffffffffffffffffffffffffffffffffff168173ffffffffffffffffffffffffffffffffffffffff167f8be0079c531659141344cd1fd0a4f28419497f9722a3daafe3b4186f6b6457e060405160405180910390a35050565b60008082604051602001610aee9190611a55565b6040516020818303038152906040528051906020012060001c905060035481610b179190611770565b915050919050565b60086040518060c00160405280848152602001838152602001600163ffffffff16815260200160045442610b539190611931565b63ffffffff168152602001600061ffff168152602001600061ffff1681525090806001815401808255809150506001900390600052602060002090600302016000909190919091506000820151816000019080519060200190610bb7929190610fb5565b506020820151816001015560408201518160020160006101000a81548163ffffffff021916908363ffffffff16021790555060608201518160020160046101000a81548163ffffffff021916908363ffffffff16021790555060808201518160020160086101000a81548161ffff021916908361ffff16021790555060a082015181600201600a6101000a81548161ffff021916908361ffff160217905550505060006001600880549050610c6c91906117d0565b9050336009600083815260200190815260200160002060006101000a81548173ffffffffffffffffffffffffffffffffffffffff021916908373ffffffffffffffffffffffffffffffffffffffff1602179055506001600a60003373ffffffffffffffffffffffffffffffffffffffff1673ffffffffffffffffffffffffffffffffffffffff16815260200190815260200160002054610d0c9190611931565b600a60003373ffffffffffffffffffffffffffffffffffffffff1673ffffffffffffffffffffffffffffffffffffffff168152602001908152602001600020819055507f88f026aacbbecc90c18411df4b1185fd8d9be2470f1962f192bf84a27d0704b7818484604051610d8293929190611a6c565b60405180910390a1505050565b806007819055505050565b60007f000000000000000000000000000000000000000000000000000000000000000073ffffffffffffffffffffffffffffffffffffffff16634000aea07f000000000000000000000000000000000000000000000000000000000000000084866000604051602001610e0e929190611aaa565b6040516020818303038152906040526040518463ffffffff1660e01b8152600401610e3b93929190611b28565b6020604051808303816000875af1158015610e5a573d6000803e3d6000fd5b505050506040513d601f19601f82011682018060405250810190610e7e9190611b66565b506000610ea1846000306001600089815260200190815260200160002054610f46565b9050600180600086815260200190815260200160002054610ec29190611931565b6001600086815260200190815260200160002081905550610ee38482610f82565b91505092915050565b6000428260020160049054906101000a900463ffffffff1663ffffffff1611159050919050565b60045442610f219190611931565b8160020160046101000a81548163ffffffff021916908363ffffffff16021790555050565b600084848484604051602001610f5f9493929190611b93565b6040516020818303038152906040528051906020012060001c9050949350505050565b60008282604051602001610f97929190611c1a565b60405160208183030381529060405280519060200120905092915050565b828054610fc1906116a4565b90600052602060002090601f016020900481019282610fe3576000855561102a565b82601f10610ffc57805160ff191683800117855561102a565b8280016001018555821561102a579182015b8281111561102957825182559160200191906001019061100e565b5b509050611037919061103b565b5090565b5b8082111561105457600081600090555060010161103c565b5090565b6000604051905090565b600080fd5b600080fd5b6000819050919050565b61107f8161106c565b811461108a57600080fd5b50565b60008135905061109c81611076565b92915050565b600080604083850312156110b9576110b8611062565b5b60006110c78582860161108d565b92505060206110d88582860161108d565b9150509250929050565b6000602082840312156110f8576110f7611062565b5b60006111068482850161108d565b91505092915050565b600081519050919050565b600082825260208201905092915050565b60005b8381101561114957808201518184015260208101905061112e565b83811115611158576000848401525b50505050565b6000601f19601f8301169050919050565b600061117a8261110f565b611184818561111a565b935061119481856020860161112b565b61119d8161115e565b840191505092915050565b6111b18161106c565b82525050565b600063ffffffff82169050919050565b6111d0816111b7565b82525050565b600061ffff82169050919050565b6111ed816111d6565b82525050565b600060c082019050818103600083015261120d818961116f565b905061121c60208301886111a8565b61122960408301876111c7565b61123660608301866111c7565b61124360808301856111e4565b61125060a08301846111e4565b979650505050505050565b600060208201905061127060008301846111a8565b92915050565b600073ffffffffffffffffffffffffffffffffffffffff82169050919050565b60006112a182611276565b9050919050565b6112b181611296565b82525050565b60006020820190506112cc60008301846112a8565b92915050565b6112db81611296565b81146112e657600080fd5b50565b6000813590506112f8816112d2565b92915050565b60006020828403121561131457611313611062565b5b6000611322848285016112e9565b91505092915050565b6000819050919050565b61133e8161132b565b82525050565b60006020820190506113596000830184611335565b92915050565b600080fd5b600080fd5b7f4e487b7100000000000000000000000000000000000000000000000000000000600052604160045260246000fd5b6113a18261115e565b810181811067ffffffffffffffff821117156113c0576113bf611369565b5b80604052505050565b60006113d3611058565b90506113df8282611398565b919050565b600067ffffffffffffffff8211156113ff576113fe611369565b5b6114088261115e565b9050602081019050919050565b82818337600083830152505050565b6000611437611432846113e4565b6113c9565b90508281526020810184848401111561145357611452611364565b5b61145e848285611415565b509392505050565b600082601f83011261147b5761147a61135f565b5b813561148b848260208601611424565b91505092915050565b6000602082840312156114aa576114a9611062565b5b600082013567ffffffffffffffff8111156114c8576114c7611067565b5b6114d484828501611466565b91505092915050565b6114e68161132b565b81146114f157600080fd5b50565b600081359050611503816114dd565b92915050565b600080604083850312156115205761151f611062565b5b600061152e858286016114f4565b925050602061153f8582860161108d565b9150509250929050565b60008115159050919050565b61155e81611549565b811461156957600080fd5b50565b60008151905061157b81611555565b92915050565b60008151905061159081611076565b92915050565b6000806000806000806000806000806101408b8d0312156115ba576115b9611062565b5b60006115c88d828e0161156c565b9a505060206115d98d828e0161156c565b99505060406115ea8d828e01611581565b98505060606115fb8d828e01611581565b975050608061160c8d828e01611581565b96505060a061161d8d828e01611581565b95505060c061162e8d828e01611581565b94505060e061163f8d828e01611581565b9350506101006116518d828e01611581565b9250506101206116638d828e01611581565b9150509295989b9194979a5092959850565b7f4e487b7100000000000000000000000000000000000000000000000000000000600052602260045260246000fd5b600060028204905060018216806116bc57607f821691505b6020821081036116cf576116ce611675565b5b50919050565b7f4f776e61626c653a2063616c6c6572206973206e6f7420746865206f776e6572600082015250565b600061170b60208361111a565b9150611716826116d5565b602082019050919050565b6000602082019050818103600083015261173a816116fe565b9050919050565b7f4e487b7100000000000000000000000000000000000000000000000000000000600052601260045260246000fd5b600061177b8261106c565b91506117868361106c565b92508261179657611795611741565b5b828206905092915050565b7f4e487b7100000000000000000000000000000000000000000000000000000000600052601160045260246000fd5b60006117db8261106c565b91506117e68361106c565b9250828210156117f9576117f86117a1565b5b828203905092915050565b7f4f6e6c7920565246436f6f7264696e61746f722063616e2066756c66696c6c00600082015250565b600061183a601f8361111a565b915061184582611804565b602082019050919050565b600060208201905081810360008301526118698161182d565b9050919050565b7f4f776e61626c653a206e6577206f776e657220697320746865207a65726f206160008201527f6464726573730000000000000000000000000000000000000000000000000000602082015250565b60006118cc60268361111a565b91506118d782611870565b604082019050919050565b600060208201905081810360008301526118fb816118bf565b9050919050565b7f4e487b7100000000000000000000000000000000000000000000000000000000600052603260045260246000fd5b600061193c8261106c565b91506119478361106c565b9250827fffffffffffffffffffffffffffffffffffffffffffffffffffffffffffffffff0382111561197c5761197b6117a1565b5b828201905092915050565b60006119928261106c565b915061199d8361106c565b9250826119ad576119ac611741565b5b828204905092915050565b600081905092915050565b7f6b69747479000000000000000000000000000000000000000000000000000000600082015250565b60006119f96005836119b8565b9150611a04826119c3565b600582019050919050565b6000611a1a826119ec565b9150819050919050565b6000611a2f8261110f565b611a3981856119b8565b9350611a4981856020860161112b565b80840191505092915050565b6000611a618284611a24565b915081905092915050565b6000606082019050611a8160008301866111a8565b8181036020830152611a93818561116f565b9050611aa260408301846111a8565b949350505050565b6000604082019050611abf6000830185611335565b611acc60208301846111a8565b9392505050565b600081519050919050565b600082825260208201905092915050565b6000611afa82611ad3565b611b048185611ade565b9350611b1481856020860161112b565b611b1d8161115e565b840191505092915050565b6000606082019050611b3d60008301866112a8565b611b4a60208301856111a8565b8181036040830152611b5c8184611aef565b9050949350505050565b600060208284031215611b7c57611b7b611062565b5b6000611b8a8482850161156c565b91505092915050565b6000608082019050611ba86000830187611335565b611bb560208301866111a8565b611bc260408301856112a8565b611bcf60608301846111a8565b95945050505050565b6000819050919050565b611bf3611bee8261132b565b611bd8565b82525050565b6000819050919050565b611c14611c0f8261106c565b611bf9565b82525050565b6000611c268285611be2565b602082019150611c368284611c03565b602082019150819050939250505056fea264697066735822122070b74107aa1a08423a23ab51de25ab8e1ce48859c9fd4577a3a77aa1c5132ac464736f6c634300080d0033",
  "immutableReferences": {
    "73": [
      {
        "length": 32,
        "start": 3486
      }
    ],
    "75": [
      {
        "length": 32,
        "start": 1734
      },
      {
        "length": 32,
        "start": 3546
      }
    ]
  },
  "source": "// SPDX-License-Identifier: UNLICENSED\npragma solidity >=0.8.0 <0.9.0;\n\nimport \"./ZombieFactory.sol\";\n\nabstract contract KittyInterface {\n  function getKitty(uint256 _id) external view virtual returns (\n    bool isGestating,\n    bool isReady,\n    uint256 cooldownIndex,\n    uint256 nextActionAt,\n    uint256 siringWithId,\n    uint256 birthTime,\n    uint256 matronId,\n    uint256 sireId,\n    uint256 generation,\n    uint256 genes\n  );\n}\n\ncontract ZombieFeeding is ZombieFactory {\n\n  KittyInterface kittyContract;\n\n  modifier onlyOwnerOf(uint _zombieId) {\n    require(msg.sender == zombieToOwner[_zombieId]);\n    _;\n  }\n\n  function setKittyContractAddress(address _address) external onlyOwner {\n    kittyContract = KittyInterface(_address);\n  }\n\n  function _triggerCooldown(Zombie storage _zombie) internal {\n    _zombie.readyTime = uint32(block.timestamp + cooldownTime);\n  }\n\n  function _isReady(Zombie storage _zombie) internal view returns (bool) {\n      return (_zombie.readyTime <= block.timestamp);\n  }\n\n  function feedAndMultiply(uint _zombieId, uint _targetDna, string memory _species) internal onlyOwnerOf(_zombieId) {\n    Zombie storage myZombie = zombies[_zombieId];\n    require(_isReady(myZombie));\n    _targetDna = _targetDna % dnaModulus;\n    uint newDna = (myZombie.dna + _targetDna) / 2;\n    if (keccak256(abi.encodePacked(_species)) == keccak256(abi.encodePacked(\"kitty\"))) {\n      newDna = newDna - newDna % 100 + 99;\n    }\n    _createZombie(\"NoName\", newDna);\n    _triggerCooldown(myZombie);\n  }\n\n  function feedOnKitty(uint _zombieId, uint _kittyId) public {\n    uint kittyDna;\n    (,,,,,,,,,kittyDna) = kittyContract.getKitty(_kittyId);\n    feedAndMultiply(_zombieId, kittyDna, \"kitty\");\n  }\n}\n",
  "sourcePath": "/Users/michaelwon/Documents/Side-Project/CryptoZombies/contracts/ZombieFeeding.sol",
  "compiler": {
    "name": "solc",
    "version": "0.8.13+commit.abaa5c0e.Emscripten.clang"
  },
  "schemaVersion": "3.4.6",
  "updatedAt": "2022-04-16T09:13:55.150Z",
  "devdoc": {
    "kind": "dev",
    "methods": {
      "owner()": {
        "details": "Returns the address of the current owner."
      },
      "renounceOwnership()": {
        "details": "Leaves the contract without owner. It will not be possible to call `onlyOwner` functions anymore. Can only be called by the current owner. NOTE: Renouncing ownership will leave the contract without an owner, thereby removing any functionality that is only available to the owner."
      },
      "transferOwnership(address)": {
        "details": "Transfers ownership of the contract to a new account (`newOwner`). Can only be called by the current owner."
      }
    },
    "version": 1
  },
  "userdoc": {
    "kind": "user",
    "methods": {},
    "version": 1
  }
}