{
  "contractName": "ZombieOwnership",
  "abi": [
    {
      "anonymous": false,
      "inputs": [
        {
          "indexed": true,
          "internalType": "address",
          "name": "_owner",
          "type": "address"
        },
        {
          "indexed": true,
          "internalType": "address",
          "name": "_approved",
          "type": "address"
        },
        {
          "indexed": true,
          "internalType": "uint256",
          "name": "_tokenId",
          "type": "uint256"
        }
      ],
      "name": "Approval",
      "type": "event"
    },
    {
      "anonymous": false,
      "inputs": [
        {
          "indexed": false,
          "internalType": "uint256",
          "name": "zombieId",
          "type": "uint256"
        },
        {
          "indexed": false,
          "internalType": "string",
          "name": "name",
          "type": "string"
        },
        {
          "indexed": false,
          "internalType": "uint256",
          "name": "dna",
          "type": "uint256"
        }
      ],
      "name": "NewZombie",
      "type": "event"
    },
    {
      "anonymous": false,
      "inputs": [
        {
          "indexed": true,
          "internalType": "address",
          "name": "previousOwner",
          "type": "address"
        },
        {
          "indexed": true,
          "internalType": "address",
          "name": "newOwner",
          "type": "address"
        }
      ],
      "name": "OwnershipTransferred",
      "type": "event"
    },
    {
      "anonymous": false,
      "inputs": [
        {
          "indexed": true,
          "internalType": "address",
          "name": "_from",
          "type": "address"
        },
        {
          "indexed": true,
          "internalType": "address",
          "name": "_to",
          "type": "address"
        },
        {
          "indexed": true,
          "internalType": "uint256",
          "name": "_tokenId",
          "type": "uint256"
        }
      ],
      "name": "Transfer",
      "type": "event"
    },
    {
      "inputs": [
        {
          "internalType": "uint256",
          "name": "_zombieId",
          "type": "uint256"
        },
        {
          "internalType": "uint256",
          "name": "_targetId",
          "type": "uint256"
        }
      ],
      "name": "attack",
      "outputs": [],
      "stateMutability": "nonpayable",
      "type": "function"
    },
    {
      "inputs": [
        {
          "internalType": "uint256",
          "name": "_zombieId",
          "type": "uint256"
        },
        {
          "internalType": "uint256",
          "name": "_newDna",
          "type": "uint256"
        }
      ],
      "name": "changeDna",
      "outputs": [],
      "stateMutability": "nonpayable",
      "type": "function"
    },
    {
      "inputs": [
        {
          "internalType": "uint256",
          "name": "_zombieId",
          "type": "uint256"
        },
        {
          "internalType": "string",
          "name": "_newName",
          "type": "string"
        }
      ],
      "name": "changeName",
      "outputs": [],
      "stateMutability": "nonpayable",
      "type": "function"
    },
    {
      "inputs": [
        {
          "internalType": "string",
          "name": "_name",
          "type": "string"
        }
      ],
      "name": "createRandomZombie",
      "outputs": [],
      "stateMutability": "nonpayable",
      "type": "function"
    },
    {
      "inputs": [],
      "name": "fee",
      "outputs": [
        {
          "internalType": "uint256",
          "name": "",
          "type": "uint256"
        }
      ],
      "stateMutability": "view",
      "type": "function"
    },
    {
      "inputs": [
        {
          "internalType": "uint256",
          "name": "_zombieId",
          "type": "uint256"
        },
        {
          "internalType": "uint256",
          "name": "_kittyId",
          "type": "uint256"
        }
      ],
      "name": "feedOnKitty",
      "outputs": [],
      "stateMutability": "nonpayable",
      "type": "function"
    },
    {
      "inputs": [],
      "name": "getRandomNumber",
      "outputs": [
        {
          "internalType": "bytes32",
          "name": "requestId",
          "type": "bytes32"
        }
      ],
      "stateMutability": "nonpayable",
      "type": "function"
    },
    {
      "inputs": [
        {
          "internalType": "address",
          "name": "_owner",
          "type": "address"
        }
      ],
      "name": "getZombiesByOwner",
      "outputs": [
        {
          "internalType": "uint256[]",
          "name": "",
          "type": "uint256[]"
        }
      ],
      "stateMutability": "view",
      "type": "function"
    },
    {
      "inputs": [],
      "name": "keyHash",
      "outputs": [
        {
          "internalType": "bytes32",
          "name": "",
          "type": "bytes32"
        }
      ],
      "stateMutability": "view",
      "type": "function"
    },
    {
      "inputs": [
        {
          "internalType": "uint256",
          "name": "_zombieId",
          "type": "uint256"
        }
      ],
      "name": "levelUp",
      "outputs": [],
      "stateMutability": "payable",
      "type": "function"
    },
    {
      "inputs": [],
      "name": "owner",
      "outputs": [
        {
          "internalType": "address",
          "name": "",
          "type": "address"
        }
      ],
      "stateMutability": "view",
      "type": "function"
    },
    {
      "inputs": [],
      "name": "randomResult",
      "outputs": [
        {
          "internalType": "uint256",
          "name": "",
          "type": "uint256"
        }
      ],
      "stateMutability": "view",
      "type": "function"
    },
    {
      "inputs": [
        {
          "internalType": "bytes32",
          "name": "requestId",
          "type": "bytes32"
        },
        {
          "internalType": "uint256",
          "name": "randomness",
          "type": "uint256"
        }
      ],
      "name": "rawFulfillRandomness",
      "outputs": [],
      "stateMutability": "nonpayable",
      "type": "function"
    },
    {
      "inputs": [],
      "name": "renounceOwnership",
      "outputs": [],
      "stateMutability": "nonpayable",
      "type": "function"
    },
    {
      "inputs": [
        {
          "internalType": "address",
          "name": "_address",
          "type": "address"
        }
      ],
      "name": "setKittyContractAddress",
      "outputs": [],
      "stateMutability": "nonpayable",
      "type": "function"
    },
    {
      "inputs": [
        {
          "internalType": "uint256",
          "name": "_fee",
          "type": "uint256"
        }
      ],
      "name": "setLevelUpFee",
      "outputs": [],
      "stateMutability": "nonpayable",
      "type": "function"
    },
    {
      "inputs": [
        {
          "internalType": "address",
          "name": "newOwner",
          "type": "address"
        }
      ],
      "name": "transferOwnership",
      "outputs": [],
      "stateMutability": "nonpayable",
      "type": "function"
    },
    {
      "inputs": [],
      "name": "withdraw",
      "outputs": [],
      "stateMutability": "nonpayable",
      "type": "function"
    },
    {
      "inputs": [
        {
          "internalType": "uint256",
          "name": "",
          "type": "uint256"
        }
      ],
      "name": "zombieToOwner",
      "outputs": [
        {
          "internalType": "address",
          "name": "",
          "type": "address"
        }
      ],
      "stateMutability": "view",
      "type": "function"
    },
    {
      "inputs": [
        {
          "internalType": "uint256",
          "name": "",
          "type": "uint256"
        }
      ],
      "name": "zombies",
      "outputs": [
        {
          "internalType": "string",
          "name": "name",
          "type": "string"
        },
        {
          "internalType": "uint256",
          "name": "dna",
          "type": "uint256"
        },
        {
          "internalType": "uint32",
          "name": "level",
          "type": "uint32"
        },
        {
          "internalType": "uint32",
          "name": "readyTime",
          "type": "uint32"
        },
        {
          "internalType": "uint16",
          "name": "winCount",
          "type": "uint16"
        },
        {
          "internalType": "uint16",
          "name": "lossCount",
          "type": "uint16"
        }
      ],
      "stateMutability": "view",
      "type": "function"
    },
    {
      "inputs": [
        {
          "internalType": "address",
          "name": "_owner",
          "type": "address"
        }
      ],
      "name": "balanceOf",
      "outputs": [
        {
          "internalType": "uint256",
          "name": "",
          "type": "uint256"
        }
      ],
      "stateMutability": "view",
      "type": "function"
    },
    {
      "inputs": [
        {
          "internalType": "uint256",
          "name": "_tokenId",
          "type": "uint256"
        }
      ],
      "name": "ownerOf",
      "outputs": [
        {
          "internalType": "address",
          "name": "",
          "type": "address"
        }
      ],
      "stateMutability": "view",
      "type": "function"
    },
    {
      "inputs": [
        {
          "internalType": "address",
          "name": "_from",
          "type": "address"
        },
        {
          "internalType": "address",
          "name": "_to",
          "type": "address"
        },
        {
          "internalType": "uint256",
          "name": "_tokenId",
          "type": "uint256"
        }
      ],
      "name": "transferFrom",
      "outputs": [],
      "stateMutability": "payable",
      "type": "function"
    },
    {
      "inputs": [
        {
          "internalType": "address",
          "name": "_approved",
          "type": "address"
        },
        {
          "internalType": "uint256",
          "name": "_tokenId",
          "type": "uint256"
        }
      ],
      "name": "approve",
      "outputs": [],
      "stateMutability": "payable",
      "type": "function"
    }
  ],
  "bytecode": "0x60c06040526010600255600254600a6200001a919062000393565b6003556201518060045566038d7ea4c68000600c556000600d556046600e553480156200004657600080fd5b5073b3dccb4cf7a26f6cf6b120cf5a73875b7bbc655b7301be23585060835e02b77ef475b0cc51aa1e070962000091620000856200013a60201b60201c565b6200014260201b60201c565b8173ffffffffffffffffffffffffffffffffffffffff1660a08173ffffffffffffffffffffffffffffffffffffffff16815250508073ffffffffffffffffffffffffffffffffffffffff1660808173ffffffffffffffffffffffffffffffffffffffff168152505050507f2ed0feb3e7fd2022120aa84fab1945545a9f2ffc9076fd6156fa96eaff4c131160001b60058190555067016345785d8a0000600681905550620003e4565b600033905090565b60008060009054906101000a900473ffffffffffffffffffffffffffffffffffffffff169050816000806101000a81548173ffffffffffffffffffffffffffffffffffffffff021916908373ffffffffffffffffffffffffffffffffffffffff1602179055508173ffffffffffffffffffffffffffffffffffffffff168173ffffffffffffffffffffffffffffffffffffffff167f8be0079c531659141344cd1fd0a4f28419497f9722a3daafe3b4186f6b6457e060405160405180910390a35050565b7f4e487b7100000000000000000000000000000000000000000000000000000000600052601160045260246000fd5b60008160011c9050919050565b6000808291508390505b600185111562000294578086048111156200026c576200026b62000206565b5b60018516156200027c5780820291505b80810290506200028c8562000235565b94506200024c565b94509492505050565b600082620002af576001905062000382565b81620002bf576000905062000382565b8160018114620002d85760028114620002e35762000319565b600191505062000382565b60ff841115620002f857620002f762000206565b5b8360020a91508482111562000312576200031162000206565b5b5062000382565b5060208310610133831016604e8410600b8410161715620003535782820a9050838111156200034d576200034c62000206565b5b62000382565b62000362848484600162000242565b925090508184048111156200037c576200037b62000206565b5b81810290505b9392505050565b6000819050919050565b6000620003a08262000389565b9150620003ad8362000389565b9250620003dc7fffffffffffffffffffffffffffffffffffffffffffffffffffffffffffffffff84846200029d565b905092915050565b60805160a051612fc16200041160003960008181610fdb0152611c9a01526000611c5e0152612fc16000f3fe60806040526004361061014b5760003560e01c80636352211e116100b6578063c39cbef11161006f578063c39cbef114610456578063ccf670f81461047f578063dbdff2c1146104a8578063ddca3f43146104d3578063e1fa7638146104fe578063f2fde38b146105275761014b565b80636352211e1461034857806370a0823114610385578063715018a6146103c25780637bff0a01146103d95780638da5cb5b1461040257806394985ddd1461042d5761014b565b806342619f661161010857806342619f66146102265780634412e10414610251578063528b7b8f1461028e5780635f4623f1146102cb5780635faf2880146102f457806361728f391461031d5761014b565b8063095ea7b3146101505780630ce90ec21461016c57806317a7f4cc146101885780632052465e146101b157806323b872dd146101f35780633ccfd60b1461020f575b600080fd5b61016a6004803603810190610165919061209f565b610550565b005b610186600480360381019061018191906120df565b61066e565b005b34801561019457600080fd5b506101af60048036038101906101aa919061210c565b610704565b005b3480156101bd57600080fd5b506101d860048036038101906101d391906120df565b610822565b6040516101ea96959493929190612230565b60405180910390f35b61020d60048036038101906102089190612298565b610932565b005b34801561021b57600080fd5b50610224610a16565b005b34801561023257600080fd5b5061023b610ae8565b60405161024891906122eb565b60405180910390f35b34801561025d57600080fd5b5061027860048036038101906102739190612306565b610aee565b60405161028591906123f1565b60405180910390f35b34801561029a57600080fd5b506102b560048036038101906102b091906120df565b610c40565b6040516102c29190612422565b60405180910390f35b3480156102d757600080fd5b506102f260048036038101906102ed9190612306565b610c73565b005b34801561030057600080fd5b5061031b6004803603810190610316919061210c565b610d33565b005b34801561032957600080fd5b50610332610e1b565b60405161033f9190612456565b60405180910390f35b34801561035457600080fd5b5061036f600480360381019061036a91906120df565b610e21565b60405161037c9190612422565b60405180910390f35b34801561039157600080fd5b506103ac60048036038101906103a79190612306565b610e5e565b6040516103b991906122eb565b60405180910390f35b3480156103ce57600080fd5b506103d7610ea7565b005b3480156103e557600080fd5b5061040060048036038101906103fb91906125a6565b610f2f565b005b34801561040e57600080fd5b50610417610fb0565b6040516104249190612422565b60405180910390f35b34801561043957600080fd5b50610454600480360381019061044f919061261b565b610fd9565b005b34801561046257600080fd5b5061047d600480360381019061047891906126bb565b611075565b005b34801561048b57600080fd5b506104a660048036038101906104a191906120df565b611169565b005b3480156104b457600080fd5b506104bd6111ef565b6040516104ca9190612456565b60405180910390f35b3480156104df57600080fd5b506104e8611204565b6040516104f591906122eb565b60405180910390f35b34801561050a57600080fd5b506105256004803603810190610520919061210c565b61120a565b005b34801561053357600080fd5b5061054e60048036038101906105499190612306565b61146b565b005b806009600082815260200190815260200160002060009054906101000a900473ffffffffffffffffffffffffffffffffffffffff1673ffffffffffffffffffffffffffffffffffffffff163373ffffffffffffffffffffffffffffffffffffffff16146105bc57600080fd5b82600f600084815260200190815260200160002060006101000a81548173ffffffffffffffffffffffffffffffffffffffff021916908373ffffffffffffffffffffffffffffffffffffffff160217905550818373ffffffffffffffffffffffffffffffffffffffff163373ffffffffffffffffffffffffffffffffffffffff167f8c5be1e5ebec7d5bd14f71427d1e84f3dd0314c0f7b2291e5b200ac8c7c3b92560405160405180910390a4505050565b600c54341461067c57600080fd5b6001600882815481106106925761069161271b565b5b906000526020600020906003020160020160009054906101000a900463ffffffff166106be9190612779565b600882815481106106d2576106d161271b565b5b906000526020600020906003020160020160006101000a81548163ffffffff021916908363ffffffff16021790555050565b6000600b60009054906101000a900473ffffffffffffffffffffffffffffffffffffffff1673ffffffffffffffffffffffffffffffffffffffff1663e98b7f4d836040518263ffffffff1660e01b815260040161076191906122eb565b61014060405180830381865afa15801561077f573d6000803e3d6000fd5b505050506040513d601f19601f820116820180604052508101906107a391906127fa565b9091929394959697985090919293949596975090919293949596509091929394955090919293945090919293509091925090915090508091505061081d83826040518060400160405280600581526020017f6b69747479000000000000000000000000000000000000000000000000000000815250611562565b505050565b6008818154811061083257600080fd5b906000526020600020906003020160009150905080600001805461085590612908565b80601f016020809104026020016040519081016040528092919081815260200182805461088190612908565b80156108ce5780601f106108a3576101008083540402835291602001916108ce565b820191906000526020600020905b8154815290600101906020018083116108b157829003601f168201915b5050505050908060010154908060020160009054906101000a900463ffffffff16908060020160049054906101000a900463ffffffff16908060020160089054906101000a900461ffff169080600201600a9054906101000a900461ffff16905086565b3373ffffffffffffffffffffffffffffffffffffffff166009600083815260200190815260200160002060009054906101000a900473ffffffffffffffffffffffffffffffffffffffff1673ffffffffffffffffffffffffffffffffffffffff1614806109fd57503373ffffffffffffffffffffffffffffffffffffffff16600f600083815260200190815260200160002060009054906101000a900473ffffffffffffffffffffffffffffffffffffffff1673ffffffffffffffffffffffffffffffffffffffff16145b610a0657600080fd5b610a118383836116fe565b505050565b610a1e6118ce565b73ffffffffffffffffffffffffffffffffffffffff16610a3c610fb0565b73ffffffffffffffffffffffffffffffffffffffff1614610a92576040517f08c379a0000000000000000000000000000000000000000000000000000000008152600401610a8990612985565b60405180910390fd5b6000610a9c610fb0565b90508073ffffffffffffffffffffffffffffffffffffffff166108fc479081150290604051600060405180830381858888f19350505050158015610ae4573d6000803e3d6000fd5b5050565b60075481565b60606000600a60008473ffffffffffffffffffffffffffffffffffffffff1673ffffffffffffffffffffffffffffffffffffffff1681526020019081526020016000205467ffffffffffffffff811115610b4b57610b4a61247b565b5b604051908082528060200260200182016040528015610b795781602001602082028036833780820191505090505b5090506000805b600880549050811015610c35578473ffffffffffffffffffffffffffffffffffffffff166009600083815260200190815260200160002060009054906101000a900473ffffffffffffffffffffffffffffffffffffffff1673ffffffffffffffffffffffffffffffffffffffff1603610c225780838381518110610c0757610c0661271b565b5b6020026020010181815250508180610c1e906129a5565b9250505b8080610c2d906129a5565b915050610b80565b508192505050919050565b60096020528060005260406000206000915054906101000a900473ffffffffffffffffffffffffffffffffffffffff1681565b610c7b6118ce565b73ffffffffffffffffffffffffffffffffffffffff16610c99610fb0565b73ffffffffffffffffffffffffffffffffffffffff1614610cef576040517f08c379a0000000000000000000000000000000000000000000000000000000008152600401610ce690612985565b60405180910390fd5b80600b60006101000a81548173ffffffffffffffffffffffffffffffffffffffff021916908373ffffffffffffffffffffffffffffffffffffffff16021790555050565b6014828160088281548110610d4b57610d4a61271b565b5b906000526020600020906003020160020160009054906101000a900463ffffffff1663ffffffff161015610d7e57600080fd5b836009600082815260200190815260200160002060009054906101000a900473ffffffffffffffffffffffffffffffffffffffff1673ffffffffffffffffffffffffffffffffffffffff163373ffffffffffffffffffffffffffffffffffffffff1614610dea57600080fd5b8360088681548110610dff57610dfe61271b565b5b9060005260206000209060030201600101819055505050505050565b60055481565b60006009600083815260200190815260200160002060009054906101000a900473ffffffffffffffffffffffffffffffffffffffff169050919050565b6000600a60008373ffffffffffffffffffffffffffffffffffffffff1673ffffffffffffffffffffffffffffffffffffffff168152602001908152602001600020549050919050565b610eaf6118ce565b73ffffffffffffffffffffffffffffffffffffffff16610ecd610fb0565b73ffffffffffffffffffffffffffffffffffffffff1614610f23576040517f08c379a0000000000000000000000000000000000000000000000000000000008152600401610f1a90612985565b60405180910390fd5b610f2d60006118d6565b565b6000600a60003373ffffffffffffffffffffffffffffffffffffffff1673ffffffffffffffffffffffffffffffffffffffff1681526020019081526020016000205414610f7b57600080fd5b6000610f868261199a565b9050606481610f959190612a1c565b81610fa09190612a4d565b9050610fac82826119df565b5050565b60008060009054906101000a900473ffffffffffffffffffffffffffffffffffffffff16905090565b7f000000000000000000000000000000000000000000000000000000000000000073ffffffffffffffffffffffffffffffffffffffff163373ffffffffffffffffffffffffffffffffffffffff1614611067576040517f08c379a000000000000000000000000000000000000000000000000000000000815260040161105e90612acd565b60405180910390fd5b6110718282611c4f565b5050565b600283816008828154811061108d5761108c61271b565b5b906000526020600020906003020160020160009054906101000a900463ffffffff1663ffffffff1610156110c057600080fd5b846009600082815260200190815260200160002060009054906101000a900473ffffffffffffffffffffffffffffffffffffffff1673ffffffffffffffffffffffffffffffffffffffff163373ffffffffffffffffffffffffffffffffffffffff161461112c57600080fd5b8484600888815481106111425761114161271b565b5b90600052602060002090600302016000019190611160929190611ece565b50505050505050565b6111716118ce565b73ffffffffffffffffffffffffffffffffffffffff1661118f610fb0565b73ffffffffffffffffffffffffffffffffffffffff16146111e5576040517f08c379a00000000000000000000000000000000000000000000000000000000081526004016111dc90612985565b60405180910390fd5b80600c8190555050565b60006111ff600554600654611c5a565b905090565b60065481565b816009600082815260200190815260200160002060009054906101000a900473ffffffffffffffffffffffffffffffffffffffff1673ffffffffffffffffffffffffffffffffffffffff163373ffffffffffffffffffffffffffffffffffffffff161461127657600080fd5b60006008848154811061128c5761128b61271b565b5b906000526020600020906003020190506000600884815481106112b2576112b161271b565b5b9060005260206000209060030201905060006112ce6064611dac565b9050600e5481116113df5760018360020160089054906101000a900461ffff166112f89190612aed565b8360020160086101000a81548161ffff021916908361ffff16021790555060018360020160009054906101000a900463ffffffff166113379190612b25565b8360020160006101000a81548163ffffffff021916908363ffffffff160217905550600182600201600a9054906101000a900461ffff166113789190612aed565b82600201600a6101000a81548161ffff021916908361ffff1602179055506113da8683600101546040518060400160405280600681526020017f7a6f6d6269650000000000000000000000000000000000000000000000000000815250611562565b611463565b600183600201600a9054906101000a900461ffff166113fe9190612aed565b83600201600a6101000a81548161ffff021916908361ffff16021790555060018260020160089054906101000a900461ffff1661143b9190612aed565b8260020160086101000a81548161ffff021916908361ffff16021790555061146283611e05565b5b505050505050565b6114736118ce565b73ffffffffffffffffffffffffffffffffffffffff16611491610fb0565b73ffffffffffffffffffffffffffffffffffffffff16146114e7576040517f08c379a00000000000000000000000000000000000000000000000000000000081526004016114de90612985565b60405180910390fd5b600073ffffffffffffffffffffffffffffffffffffffff168173ffffffffffffffffffffffffffffffffffffffff1603611556576040517f08c379a000000000000000000000000000000000000000000000000000000000815260040161154d90612bd1565b60405180910390fd5b61155f816118d6565b50565b826009600082815260200190815260200160002060009054906101000a900473ffffffffffffffffffffffffffffffffffffffff1673ffffffffffffffffffffffffffffffffffffffff163373ffffffffffffffffffffffffffffffffffffffff16146115ce57600080fd5b6000600885815481106115e4576115e361271b565b5b906000526020600020906003020190506115fd81611e38565b61160657600080fd5b600354846116149190612a1c565b93506000600285836001015461162a9190612bf1565b6116349190612c47565b905060405160200161164590612ccf565b604051602081830303815290604052805190602001208460405160200161166c9190612d15565b60405160208183030381529060405280519060200120036116ae5760636064826116969190612a1c565b826116a19190612a4d565b6116ab9190612bf1565b90505b6116ed6040518060400160405280600681526020017f4e6f4e616d650000000000000000000000000000000000000000000000000000815250826119df565b6116f682611e05565b505050505050565b6001600a60008473ffffffffffffffffffffffffffffffffffffffff1673ffffffffffffffffffffffffffffffffffffffff1681526020019081526020016000205461174a9190612bf1565b600a60008473ffffffffffffffffffffffffffffffffffffffff1673ffffffffffffffffffffffffffffffffffffffff168152602001908152602001600020819055506001600a60003373ffffffffffffffffffffffffffffffffffffffff1673ffffffffffffffffffffffffffffffffffffffff168152602001908152602001600020546117d99190612a4d565b600a60003373ffffffffffffffffffffffffffffffffffffffff1673ffffffffffffffffffffffffffffffffffffffff16815260200190815260200160002081905550816009600083815260200190815260200160002060006101000a81548173ffffffffffffffffffffffffffffffffffffffff021916908373ffffffffffffffffffffffffffffffffffffffff160217905550808273ffffffffffffffffffffffffffffffffffffffff168473ffffffffffffffffffffffffffffffffffffffff167fddf252ad1be2c89b69c2b068fc378daa952ba7f163c4a11628f55a4df523b3ef60405160405180910390a4505050565b600033905090565b60008060009054906101000a900473ffffffffffffffffffffffffffffffffffffffff169050816000806101000a81548173ffffffffffffffffffffffffffffffffffffffff021916908373ffffffffffffffffffffffffffffffffffffffff1602179055508173ffffffffffffffffffffffffffffffffffffffff168173ffffffffffffffffffffffffffffffffffffffff167f8be0079c531659141344cd1fd0a4f28419497f9722a3daafe3b4186f6b6457e060405160405180910390a35050565b600080826040516020016119ae9190612d15565b6040516020818303038152906040528051906020012060001c9050600354816119d79190612a1c565b915050919050565b60086040518060c00160405280848152602001838152602001600163ffffffff16815260200160045442611a139190612bf1565b63ffffffff168152602001600061ffff168152602001600061ffff1681525090806001815401808255809150506001900390600052602060002090600302016000909190919091506000820151816000019080519060200190611a77929190611f54565b506020820151816001015560408201518160020160006101000a81548163ffffffff021916908363ffffffff16021790555060608201518160020160046101000a81548163ffffffff021916908363ffffffff16021790555060808201518160020160086101000a81548161ffff021916908361ffff16021790555060a082015181600201600a6101000a81548161ffff021916908361ffff160217905550505060006001600880549050611b2c9190612a4d565b9050336009600083815260200190815260200160002060006101000a81548173ffffffffffffffffffffffffffffffffffffffff021916908373ffffffffffffffffffffffffffffffffffffffff1602179055506001600a60003373ffffffffffffffffffffffffffffffffffffffff1673ffffffffffffffffffffffffffffffffffffffff16815260200190815260200160002054611bcc9190612bf1565b600a60003373ffffffffffffffffffffffffffffffffffffffff1673ffffffffffffffffffffffffffffffffffffffff168152602001908152602001600020819055507f88f026aacbbecc90c18411df4b1185fd8d9be2470f1962f192bf84a27d0704b7818484604051611c4293929190612d2c565b60405180910390a1505050565b806007819055505050565b60007f000000000000000000000000000000000000000000000000000000000000000073ffffffffffffffffffffffffffffffffffffffff16634000aea07f000000000000000000000000000000000000000000000000000000000000000084866000604051602001611cce929190612d6a565b6040516020818303038152906040526040518463ffffffff1660e01b8152600401611cfb93929190612de8565b6020604051808303816000875af1158015611d1a573d6000803e3d6000fd5b505050506040513d601f19601f82011682018060405250810190611d3e9190612e26565b506000611d61846000306001600089815260200190815260200160002054611e5f565b9050600180600086815260200190815260200160002054611d829190612bf1565b6001600086815260200190815260200160002081905550611da38482611e9b565b91505092915050565b60006001600d54611dbd9190612bf1565b600d81905550814233600d54604051602001611ddb93929190612ebc565b6040516020818303038152906040528051906020012060001c611dfe9190612a1c565b9050919050565b60045442611e139190612bf1565b8160020160046101000a81548163ffffffff021916908363ffffffff16021790555050565b6000428260020160049054906101000a900463ffffffff1663ffffffff1611159050919050565b600084848484604051602001611e789493929190612ef9565b6040516020818303038152906040528051906020012060001c9050949350505050565b60008282604051602001611eb0929190612f5f565b60405160208183030381529060405280519060200120905092915050565b828054611eda90612908565b90600052602060002090601f016020900481019282611efc5760008555611f43565b82601f10611f1557803560ff1916838001178555611f43565b82800160010185558215611f43579182015b82811115611f42578235825591602001919060010190611f27565b5b509050611f509190611fda565b5090565b828054611f6090612908565b90600052602060002090601f016020900481019282611f825760008555611fc9565b82601f10611f9b57805160ff1916838001178555611fc9565b82800160010185558215611fc9579182015b82811115611fc8578251825591602001919060010190611fad565b5b509050611fd69190611fda565b5090565b5b80821115611ff3576000816000905550600101611fdb565b5090565b6000604051905090565b600080fd5b600080fd5b600073ffffffffffffffffffffffffffffffffffffffff82169050919050565b60006120368261200b565b9050919050565b6120468161202b565b811461205157600080fd5b50565b6000813590506120638161203d565b92915050565b6000819050919050565b61207c81612069565b811461208757600080fd5b50565b60008135905061209981612073565b92915050565b600080604083850312156120b6576120b5612001565b5b60006120c485828601612054565b92505060206120d58582860161208a565b9150509250929050565b6000602082840312156120f5576120f4612001565b5b60006121038482850161208a565b91505092915050565b6000806040838503121561212357612122612001565b5b60006121318582860161208a565b92505060206121428582860161208a565b9150509250929050565b600081519050919050565b600082825260208201905092915050565b60005b8381101561218657808201518184015260208101905061216b565b83811115612195576000848401525b50505050565b6000601f19601f8301169050919050565b60006121b78261214c565b6121c18185612157565b93506121d1818560208601612168565b6121da8161219b565b840191505092915050565b6121ee81612069565b82525050565b600063ffffffff82169050919050565b61220d816121f4565b82525050565b600061ffff82169050919050565b61222a81612213565b82525050565b600060c082019050818103600083015261224a81896121ac565b905061225960208301886121e5565b6122666040830187612204565b6122736060830186612204565b6122806080830185612221565b61228d60a0830184612221565b979650505050505050565b6000806000606084860312156122b1576122b0612001565b5b60006122bf86828701612054565b93505060206122d086828701612054565b92505060406122e18682870161208a565b9150509250925092565b600060208201905061230060008301846121e5565b92915050565b60006020828403121561231c5761231b612001565b5b600061232a84828501612054565b91505092915050565b600081519050919050565b600082825260208201905092915050565b6000819050602082019050919050565b61236881612069565b82525050565b600061237a838361235f565b60208301905092915050565b6000602082019050919050565b600061239e82612333565b6123a8818561233e565b93506123b38361234f565b8060005b838110156123e45781516123cb888261236e565b97506123d683612386565b9250506001810190506123b7565b5085935050505092915050565b6000602082019050818103600083015261240b8184612393565b905092915050565b61241c8161202b565b82525050565b60006020820190506124376000830184612413565b92915050565b6000819050919050565b6124508161243d565b82525050565b600060208201905061246b6000830184612447565b92915050565b600080fd5b600080fd5b7f4e487b7100000000000000000000000000000000000000000000000000000000600052604160045260246000fd5b6124b38261219b565b810181811067ffffffffffffffff821117156124d2576124d161247b565b5b80604052505050565b60006124e5611ff7565b90506124f182826124aa565b919050565b600067ffffffffffffffff8211156125115761251061247b565b5b61251a8261219b565b9050602081019050919050565b82818337600083830152505050565b6000612549612544846124f6565b6124db565b90508281526020810184848401111561256557612564612476565b5b612570848285612527565b509392505050565b600082601f83011261258d5761258c612471565b5b813561259d848260208601612536565b91505092915050565b6000602082840312156125bc576125bb612001565b5b600082013567ffffffffffffffff8111156125da576125d9612006565b5b6125e684828501612578565b91505092915050565b6125f88161243d565b811461260357600080fd5b50565b600081359050612615816125ef565b92915050565b6000806040838503121561263257612631612001565b5b600061264085828601612606565b92505060206126518582860161208a565b9150509250929050565b600080fd5b600080fd5b60008083601f84011261267b5761267a612471565b5b8235905067ffffffffffffffff8111156126985761269761265b565b5b6020830191508360018202830111156126b4576126b3612660565b5b9250929050565b6000806000604084860312156126d4576126d3612001565b5b60006126e28682870161208a565b935050602084013567ffffffffffffffff81111561270357612702612006565b5b61270f86828701612665565b92509250509250925092565b7f4e487b7100000000000000000000000000000000000000000000000000000000600052603260045260246000fd5b7f4e487b7100000000000000000000000000000000000000000000000000000000600052601160045260246000fd5b6000612784826121f4565b915061278f836121f4565b9250828210156127a2576127a161274a565b5b828203905092915050565b60008115159050919050565b6127c2816127ad565b81146127cd57600080fd5b50565b6000815190506127df816127b9565b92915050565b6000815190506127f481612073565b92915050565b6000806000806000806000806000806101408b8d03121561281e5761281d612001565b5b600061282c8d828e016127d0565b9a5050602061283d8d828e016127d0565b995050604061284e8d828e016127e5565b985050606061285f8d828e016127e5565b97505060806128708d828e016127e5565b96505060a06128818d828e016127e5565b95505060c06128928d828e016127e5565b94505060e06128a38d828e016127e5565b9350506101006128b58d828e016127e5565b9250506101206128c78d828e016127e5565b9150509295989b9194979a5092959850565b7f4e487b7100000000000000000000000000000000000000000000000000000000600052602260045260246000fd5b6000600282049050600182168061292057607f821691505b602082108103612933576129326128d9565b5b50919050565b7f4f776e61626c653a2063616c6c6572206973206e6f7420746865206f776e6572600082015250565b600061296f602083612157565b915061297a82612939565b602082019050919050565b6000602082019050818103600083015261299e81612962565b9050919050565b60006129b082612069565b91507fffffffffffffffffffffffffffffffffffffffffffffffffffffffffffffffff82036129e2576129e161274a565b5b600182019050919050565b7f4e487b7100000000000000000000000000000000000000000000000000000000600052601260045260246000fd5b6000612a2782612069565b9150612a3283612069565b925082612a4257612a416129ed565b5b828206905092915050565b6000612a5882612069565b9150612a6383612069565b925082821015612a7657612a7561274a565b5b828203905092915050565b7f4f6e6c7920565246436f6f7264696e61746f722063616e2066756c66696c6c00600082015250565b6000612ab7601f83612157565b9150612ac282612a81565b602082019050919050565b60006020820190508181036000830152612ae681612aaa565b9050919050565b6000612af882612213565b9150612b0383612213565b92508261ffff03821115612b1a57612b1961274a565b5b828201905092915050565b6000612b30826121f4565b9150612b3b836121f4565b92508263ffffffff03821115612b5457612b5361274a565b5b828201905092915050565b7f4f776e61626c653a206e6577206f776e657220697320746865207a65726f206160008201527f6464726573730000000000000000000000000000000000000000000000000000602082015250565b6000612bbb602683612157565b9150612bc682612b5f565b604082019050919050565b60006020820190508181036000830152612bea81612bae565b9050919050565b6000612bfc82612069565b9150612c0783612069565b9250827fffffffffffffffffffffffffffffffffffffffffffffffffffffffffffffffff03821115612c3c57612c3b61274a565b5b828201905092915050565b6000612c5282612069565b9150612c5d83612069565b925082612c6d57612c6c6129ed565b5b828204905092915050565b600081905092915050565b7f6b69747479000000000000000000000000000000000000000000000000000000600082015250565b6000612cb9600583612c78565b9150612cc482612c83565b600582019050919050565b6000612cda82612cac565b9150819050919050565b6000612cef8261214c565b612cf98185612c78565b9350612d09818560208601612168565b80840191505092915050565b6000612d218284612ce4565b915081905092915050565b6000606082019050612d4160008301866121e5565b8181036020830152612d5381856121ac565b9050612d6260408301846121e5565b949350505050565b6000604082019050612d7f6000830185612447565b612d8c60208301846121e5565b9392505050565b600081519050919050565b600082825260208201905092915050565b6000612dba82612d93565b612dc48185612d9e565b9350612dd4818560208601612168565b612ddd8161219b565b840191505092915050565b6000606082019050612dfd6000830186612413565b612e0a60208301856121e5565b8181036040830152612e1c8184612daf565b9050949350505050565b600060208284031215612e3c57612e3b612001565b5b6000612e4a848285016127d0565b91505092915050565b6000819050919050565b612e6e612e6982612069565b612e53565b82525050565b60008160601b9050919050565b6000612e8c82612e74565b9050919050565b6000612e9e82612e81565b9050919050565b612eb6612eb18261202b565b612e93565b82525050565b6000612ec88286612e5d565b602082019150612ed88285612ea5565b601482019150612ee88284612e5d565b602082019150819050949350505050565b6000608082019050612f0e6000830187612447565b612f1b60208301866121e5565b612f286040830185612413565b612f3560608301846121e5565b95945050505050565b6000819050919050565b612f59612f548261243d565b612f3e565b82525050565b6000612f6b8285612f48565b602082019150612f7b8284612e5d565b602082019150819050939250505056fea26469706673582212205fe2f3c6a9b84d24c35233b96dbaea6bcb48cb1b8917e4f17082f9a25bfe436564736f6c634300080d0033",
  "immutableReferences": {
    "73": [
      {
        "length": 32,
        "start": 7262
      }
    ],
    "75": [
      {
        "length": 32,
        "start": 4059
      },
      {
        "length": 32,
        "start": 7322
      }
    ]
  },
  "source": "// SPDX-License-Identifier: UNLICENSED\npragma solidity >=0.8.0 <0.9.0;\n\nimport \"./ZombieAttack.sol\";\nimport \"./ERC721.sol\";\n\ncontract ZombieOwnership is ZombieAttack, ERC721 {\n\n  mapping (uint => address) zombieApprovals;\n\n  function balanceOf(address _owner) external view override returns (uint256) {\n    return ownerZombieCount[_owner];\n  }\n\n  function ownerOf(uint256 _tokenId) external view override returns (address) {\n    return zombieToOwner[_tokenId];\n  }\n\n  function _transfer(address _from, address _to, uint256 _tokenId) private {\n    ownerZombieCount[_to] = ownerZombieCount[_to] + 1;\n    ownerZombieCount[msg.sender] = ownerZombieCount[msg.sender] - 1;\n    zombieToOwner[_tokenId] = _to;\n    emit Transfer(_from, _to, _tokenId);\n  }\n\n  function transferFrom(address _from, address _to, uint256 _tokenId) external payable override{\n      require (zombieToOwner[_tokenId] == msg.sender || zombieApprovals[_tokenId] == msg.sender);\n      _transfer(_from, _to, _tokenId);\n    }\n\n  function approve(address _approved, uint256 _tokenId) external payable override onlyOwnerOf(_tokenId) {\n      zombieApprovals[_tokenId] = _approved;\n      emit Approval(msg.sender, _approved, _tokenId);\n    }\n\n}\n",
  "sourcePath": "/Users/michaelwon/Documents/Side-Project/CryptoZombies/contracts/ZombieOwnership.sol",
  "compiler": {
    "name": "solc",
    "version": "0.8.13+commit.abaa5c0e.Emscripten.clang"
  },
  "schemaVersion": "3.4.6",
  "updatedAt": "2022-04-16T09:14:16.843Z",
  "devdoc": {
    "kind": "dev",
    "methods": {
      "owner()": {
        "details": "Returns the address of the current owner."
      },
      "renounceOwnership()": {
        "details": "Leaves the contract without owner. It will not be possible to call `onlyOwner` functions anymore. Can only be called by the current owner. NOTE: Renouncing ownership will leave the contract without an owner, thereby removing any functionality that is only available to the owner."
      },
      "transferOwnership(address)": {
        "details": "Transfers ownership of the contract to a new account (`newOwner`). Can only be called by the current owner."
      }
    },
    "version": 1
  },
  "userdoc": {
    "kind": "user",
    "methods": {},
    "version": 1
  }
}