{
  "contractName": "ZombieAttack",
  "abi": [
    {
      "anonymous": false,
      "inputs": [
        {
          "indexed": false,
          "internalType": "uint256",
          "name": "zombieId",
          "type": "uint256"
        },
        {
          "indexed": false,
          "internalType": "string",
          "name": "name",
          "type": "string"
        },
        {
          "indexed": false,
          "internalType": "uint256",
          "name": "dna",
          "type": "uint256"
        }
      ],
      "name": "NewZombie",
      "type": "event"
    },
    {
      "anonymous": false,
      "inputs": [
        {
          "indexed": true,
          "internalType": "address",
          "name": "previousOwner",
          "type": "address"
        },
        {
          "indexed": true,
          "internalType": "address",
          "name": "newOwner",
          "type": "address"
        }
      ],
      "name": "OwnershipTransferred",
      "type": "event"
    },
    {
      "inputs": [
        {
          "internalType": "uint256",
          "name": "_zombieId",
          "type": "uint256"
        },
        {
          "internalType": "uint256",
          "name": "_newDna",
          "type": "uint256"
        }
      ],
      "name": "changeDna",
      "outputs": [],
      "stateMutability": "nonpayable",
      "type": "function"
    },
    {
      "inputs": [
        {
          "internalType": "uint256",
          "name": "_zombieId",
          "type": "uint256"
        },
        {
          "internalType": "string",
          "name": "_newName",
          "type": "string"
        }
      ],
      "name": "changeName",
      "outputs": [],
      "stateMutability": "nonpayable",
      "type": "function"
    },
    {
      "inputs": [
        {
          "internalType": "string",
          "name": "_name",
          "type": "string"
        }
      ],
      "name": "createRandomZombie",
      "outputs": [],
      "stateMutability": "nonpayable",
      "type": "function"
    },
    {
      "inputs": [],
      "name": "fee",
      "outputs": [
        {
          "internalType": "uint256",
          "name": "",
          "type": "uint256"
        }
      ],
      "stateMutability": "view",
      "type": "function"
    },
    {
      "inputs": [
        {
          "internalType": "uint256",
          "name": "_zombieId",
          "type": "uint256"
        },
        {
          "internalType": "uint256",
          "name": "_kittyId",
          "type": "uint256"
        }
      ],
      "name": "feedOnKitty",
      "outputs": [],
      "stateMutability": "nonpayable",
      "type": "function"
    },
    {
      "inputs": [],
      "name": "getRandomNumber",
      "outputs": [
        {
          "internalType": "bytes32",
          "name": "requestId",
          "type": "bytes32"
        }
      ],
      "stateMutability": "nonpayable",
      "type": "function"
    },
    {
      "inputs": [
        {
          "internalType": "address",
          "name": "_owner",
          "type": "address"
        }
      ],
      "name": "getZombiesByOwner",
      "outputs": [
        {
          "internalType": "uint256[]",
          "name": "",
          "type": "uint256[]"
        }
      ],
      "stateMutability": "view",
      "type": "function"
    },
    {
      "inputs": [],
      "name": "keyHash",
      "outputs": [
        {
          "internalType": "bytes32",
          "name": "",
          "type": "bytes32"
        }
      ],
      "stateMutability": "view",
      "type": "function"
    },
    {
      "inputs": [
        {
          "internalType": "uint256",
          "name": "_zombieId",
          "type": "uint256"
        }
      ],
      "name": "levelUp",
      "outputs": [],
      "stateMutability": "payable",
      "type": "function"
    },
    {
      "inputs": [],
      "name": "owner",
      "outputs": [
        {
          "internalType": "address",
          "name": "",
          "type": "address"
        }
      ],
      "stateMutability": "view",
      "type": "function"
    },
    {
      "inputs": [],
      "name": "randomResult",
      "outputs": [
        {
          "internalType": "uint256",
          "name": "",
          "type": "uint256"
        }
      ],
      "stateMutability": "view",
      "type": "function"
    },
    {
      "inputs": [
        {
          "internalType": "bytes32",
          "name": "requestId",
          "type": "bytes32"
        },
        {
          "internalType": "uint256",
          "name": "randomness",
          "type": "uint256"
        }
      ],
      "name": "rawFulfillRandomness",
      "outputs": [],
      "stateMutability": "nonpayable",
      "type": "function"
    },
    {
      "inputs": [],
      "name": "renounceOwnership",
      "outputs": [],
      "stateMutability": "nonpayable",
      "type": "function"
    },
    {
      "inputs": [
        {
          "internalType": "address",
          "name": "_address",
          "type": "address"
        }
      ],
      "name": "setKittyContractAddress",
      "outputs": [],
      "stateMutability": "nonpayable",
      "type": "function"
    },
    {
      "inputs": [
        {
          "internalType": "uint256",
          "name": "_fee",
          "type": "uint256"
        }
      ],
      "name": "setLevelUpFee",
      "outputs": [],
      "stateMutability": "nonpayable",
      "type": "function"
    },
    {
      "inputs": [
        {
          "internalType": "address",
          "name": "newOwner",
          "type": "address"
        }
      ],
      "name": "transferOwnership",
      "outputs": [],
      "stateMutability": "nonpayable",
      "type": "function"
    },
    {
      "inputs": [],
      "name": "withdraw",
      "outputs": [],
      "stateMutability": "nonpayable",
      "type": "function"
    },
    {
      "inputs": [
        {
          "internalType": "uint256",
          "name": "",
          "type": "uint256"
        }
      ],
      "name": "zombieToOwner",
      "outputs": [
        {
          "internalType": "address",
          "name": "",
          "type": "address"
        }
      ],
      "stateMutability": "view",
      "type": "function"
    },
    {
      "inputs": [
        {
          "internalType": "uint256",
          "name": "",
          "type": "uint256"
        }
      ],
      "name": "zombies",
      "outputs": [
        {
          "internalType": "string",
          "name": "name",
          "type": "string"
        },
        {
          "internalType": "uint256",
          "name": "dna",
          "type": "uint256"
        },
        {
          "internalType": "uint32",
          "name": "level",
          "type": "uint32"
        },
        {
          "internalType": "uint32",
          "name": "readyTime",
          "type": "uint32"
        },
        {
          "internalType": "uint16",
          "name": "winCount",
          "type": "uint16"
        },
        {
          "internalType": "uint16",
          "name": "lossCount",
          "type": "uint16"
        }
      ],
      "stateMutability": "view",
      "type": "function"
    },
    {
      "inputs": [
        {
          "internalType": "uint256",
          "name": "_zombieId",
          "type": "uint256"
        },
        {
          "internalType": "uint256",
          "name": "_targetId",
          "type": "uint256"
        }
      ],
      "name": "attack",
      "outputs": [],
      "stateMutability": "nonpayable",
      "type": "function"
    }
  ],
  "bytecode": "0x60c06040526010600255600254600a6200001a919062000393565b6003556201518060045566038d7ea4c68000600c556000600d556046600e553480156200004657600080fd5b5073b3dccb4cf7a26f6cf6b120cf5a73875b7bbc655b7301be23585060835e02b77ef475b0cc51aa1e070962000091620000856200013a60201b60201c565b6200014260201b60201c565b8173ffffffffffffffffffffffffffffffffffffffff1660a08173ffffffffffffffffffffffffffffffffffffffff16815250508073ffffffffffffffffffffffffffffffffffffffff1660808173ffffffffffffffffffffffffffffffffffffffff168152505050507f2ed0feb3e7fd2022120aa84fab1945545a9f2ffc9076fd6156fa96eaff4c131160001b60058190555067016345785d8a0000600681905550620003e4565b600033905090565b60008060009054906101000a900473ffffffffffffffffffffffffffffffffffffffff169050816000806101000a81548173ffffffffffffffffffffffffffffffffffffffff021916908373ffffffffffffffffffffffffffffffffffffffff1602179055508173ffffffffffffffffffffffffffffffffffffffff168173ffffffffffffffffffffffffffffffffffffffff167f8be0079c531659141344cd1fd0a4f28419497f9722a3daafe3b4186f6b6457e060405160405180910390a35050565b7f4e487b7100000000000000000000000000000000000000000000000000000000600052601160045260246000fd5b60008160011c9050919050565b6000808291508390505b600185111562000294578086048111156200026c576200026b62000206565b5b60018516156200027c5780820291505b80810290506200028c8562000235565b94506200024c565b94509492505050565b600082620002af576001905062000382565b81620002bf576000905062000382565b8160018114620002d85760028114620002e35762000319565b600191505062000382565b60ff841115620002f857620002f762000206565b5b8360020a91508482111562000312576200031162000206565b5b5062000382565b5060208310610133831016604e8410600b8410161715620003535782820a9050838111156200034d576200034c62000206565b5b62000382565b62000362848484600162000242565b925090508184048111156200037c576200037b62000206565b5b81810290505b9392505050565b6000819050919050565b6000620003a08262000389565b9150620003ad8362000389565b9250620003dc7fffffffffffffffffffffffffffffffffffffffffffffffffffffffffffffffff84846200029d565b905092915050565b60805160a0516129f86200041160003960008181610c7501526117640152600061172801526129f86000f3fe60806040526004361061011f5760003560e01c8063715018a6116100a0578063ccf670f811610064578063ccf670f8146103a1578063dbdff2c1146103ca578063ddca3f43146103f5578063e1fa763814610420578063f2fde38b146104495761011f565b8063715018a6146102e45780637bff0a01146102fb5780638da5cb5b1461032457806394985ddd1461034f578063c39cbef1146103785761011f565b80634412e104116100e75780634412e104146101ed578063528b7b8f1461022a5780635f4623f1146102675780635faf28801461029057806361728f39146102b95761011f565b80630ce90ec21461012457806317a7f4cc146101405780632052465e146101695780633ccfd60b146101ab57806342619f66146101c2575b600080fd5b61013e60048036038101906101399190611b0b565b610472565b005b34801561014c57600080fd5b5061016760048036038101906101629190611b38565b610508565b005b34801561017557600080fd5b50610190600480360381019061018b9190611b0b565b610626565b6040516101a296959493929190611c5c565b60405180910390f35b3480156101b757600080fd5b506101c0610736565b005b3480156101ce57600080fd5b506101d7610808565b6040516101e49190611cc4565b60405180910390f35b3480156101f957600080fd5b50610214600480360381019061020f9190611d3d565b61080e565b6040516102219190611e28565b60405180910390f35b34801561023657600080fd5b50610251600480360381019061024c9190611b0b565b610960565b60405161025e9190611e59565b60405180910390f35b34801561027357600080fd5b5061028e60048036038101906102899190611d3d565b610993565b005b34801561029c57600080fd5b506102b760048036038101906102b29190611b38565b610a53565b005b3480156102c557600080fd5b506102ce610b3b565b6040516102db9190611e8d565b60405180910390f35b3480156102f057600080fd5b506102f9610b41565b005b34801561030757600080fd5b50610322600480360381019061031d9190611fdd565b610bc9565b005b34801561033057600080fd5b50610339610c4a565b6040516103469190611e59565b60405180910390f35b34801561035b57600080fd5b5061037660048036038101906103719190612052565b610c73565b005b34801561038457600080fd5b5061039f600480360381019061039a91906120f2565b610d0f565b005b3480156103ad57600080fd5b506103c860048036038101906103c39190611b0b565b610e03565b005b3480156103d657600080fd5b506103df610e89565b6040516103ec9190611e8d565b60405180910390f35b34801561040157600080fd5b5061040a610e9e565b6040516104179190611cc4565b60405180910390f35b34801561042c57600080fd5b5061044760048036038101906104429190611b38565b610ea4565b005b34801561045557600080fd5b50610470600480360381019061046b9190611d3d565b611105565b005b600c54341461048057600080fd5b60016008828154811061049657610495612152565b5b906000526020600020906003020160020160009054906101000a900463ffffffff166104c291906121b0565b600882815481106104d6576104d5612152565b5b906000526020600020906003020160020160006101000a81548163ffffffff021916908363ffffffff16021790555050565b6000600b60009054906101000a900473ffffffffffffffffffffffffffffffffffffffff1673ffffffffffffffffffffffffffffffffffffffff1663e98b7f4d836040518263ffffffff1660e01b81526004016105659190611cc4565b61014060405180830381865afa158015610583573d6000803e3d6000fd5b505050506040513d601f19601f820116820180604052508101906105a79190612231565b9091929394959697985090919293949596975090919293949596509091929394955090919293945090919293509091925090915090508091505061062183826040518060400160405280600581526020017f6b697474790000000000000000000000000000000000000000000000000000008152506111fc565b505050565b6008818154811061063657600080fd5b90600052602060002090600302016000915090508060000180546106599061233f565b80601f01602080910402602001604051908101604052809291908181526020018280546106859061233f565b80156106d25780601f106106a7576101008083540402835291602001916106d2565b820191906000526020600020905b8154815290600101906020018083116106b557829003601f168201915b5050505050908060010154908060020160009054906101000a900463ffffffff16908060020160049054906101000a900463ffffffff16908060020160089054906101000a900461ffff169080600201600a9054906101000a900461ffff16905086565b61073e611398565b73ffffffffffffffffffffffffffffffffffffffff1661075c610c4a565b73ffffffffffffffffffffffffffffffffffffffff16146107b2576040517f08c379a00000000000000000000000000000000000000000000000000000000081526004016107a9906123bc565b60405180910390fd5b60006107bc610c4a565b90508073ffffffffffffffffffffffffffffffffffffffff166108fc479081150290604051600060405180830381858888f19350505050158015610804573d6000803e3d6000fd5b5050565b60075481565b60606000600a60008473ffffffffffffffffffffffffffffffffffffffff1673ffffffffffffffffffffffffffffffffffffffff1681526020019081526020016000205467ffffffffffffffff81111561086b5761086a611eb2565b5b6040519080825280602002602001820160405280156108995781602001602082028036833780820191505090505b5090506000805b600880549050811015610955578473ffffffffffffffffffffffffffffffffffffffff166009600083815260200190815260200160002060009054906101000a900473ffffffffffffffffffffffffffffffffffffffff1673ffffffffffffffffffffffffffffffffffffffff1603610942578083838151811061092757610926612152565b5b602002602001018181525050818061093e906123dc565b9250505b808061094d906123dc565b9150506108a0565b508192505050919050565b60096020528060005260406000206000915054906101000a900473ffffffffffffffffffffffffffffffffffffffff1681565b61099b611398565b73ffffffffffffffffffffffffffffffffffffffff166109b9610c4a565b73ffffffffffffffffffffffffffffffffffffffff1614610a0f576040517f08c379a0000000000000000000000000000000000000000000000000000000008152600401610a06906123bc565b60405180910390fd5b80600b60006101000a81548173ffffffffffffffffffffffffffffffffffffffff021916908373ffffffffffffffffffffffffffffffffffffffff16021790555050565b6014828160088281548110610a6b57610a6a612152565b5b906000526020600020906003020160020160009054906101000a900463ffffffff1663ffffffff161015610a9e57600080fd5b836009600082815260200190815260200160002060009054906101000a900473ffffffffffffffffffffffffffffffffffffffff1673ffffffffffffffffffffffffffffffffffffffff163373ffffffffffffffffffffffffffffffffffffffff1614610b0a57600080fd5b8360088681548110610b1f57610b1e612152565b5b9060005260206000209060030201600101819055505050505050565b60055481565b610b49611398565b73ffffffffffffffffffffffffffffffffffffffff16610b67610c4a565b73ffffffffffffffffffffffffffffffffffffffff1614610bbd576040517f08c379a0000000000000000000000000000000000000000000000000000000008152600401610bb4906123bc565b60405180910390fd5b610bc760006113a0565b565b6000600a60003373ffffffffffffffffffffffffffffffffffffffff1673ffffffffffffffffffffffffffffffffffffffff1681526020019081526020016000205414610c1557600080fd5b6000610c2082611464565b9050606481610c2f9190612453565b81610c3a9190612484565b9050610c4682826114a9565b5050565b60008060009054906101000a900473ffffffffffffffffffffffffffffffffffffffff16905090565b7f000000000000000000000000000000000000000000000000000000000000000073ffffffffffffffffffffffffffffffffffffffff163373ffffffffffffffffffffffffffffffffffffffff1614610d01576040517f08c379a0000000000000000000000000000000000000000000000000000000008152600401610cf890612504565b60405180910390fd5b610d0b8282611719565b5050565b6002838160088281548110610d2757610d26612152565b5b906000526020600020906003020160020160009054906101000a900463ffffffff1663ffffffff161015610d5a57600080fd5b846009600082815260200190815260200160002060009054906101000a900473ffffffffffffffffffffffffffffffffffffffff1673ffffffffffffffffffffffffffffffffffffffff163373ffffffffffffffffffffffffffffffffffffffff1614610dc657600080fd5b848460088881548110610ddc57610ddb612152565b5b90600052602060002090600302016000019190610dfa929190611998565b50505050505050565b610e0b611398565b73ffffffffffffffffffffffffffffffffffffffff16610e29610c4a565b73ffffffffffffffffffffffffffffffffffffffff1614610e7f576040517f08c379a0000000000000000000000000000000000000000000000000000000008152600401610e76906123bc565b60405180910390fd5b80600c8190555050565b6000610e99600554600654611724565b905090565b60065481565b816009600082815260200190815260200160002060009054906101000a900473ffffffffffffffffffffffffffffffffffffffff1673ffffffffffffffffffffffffffffffffffffffff163373ffffffffffffffffffffffffffffffffffffffff1614610f1057600080fd5b600060088481548110610f2657610f25612152565b5b90600052602060002090600302019050600060088481548110610f4c57610f4b612152565b5b906000526020600020906003020190506000610f686064611876565b9050600e5481116110795760018360020160089054906101000a900461ffff16610f929190612524565b8360020160086101000a81548161ffff021916908361ffff16021790555060018360020160009054906101000a900463ffffffff16610fd1919061255c565b8360020160006101000a81548163ffffffff021916908363ffffffff160217905550600182600201600a9054906101000a900461ffff166110129190612524565b82600201600a6101000a81548161ffff021916908361ffff1602179055506110748683600101546040518060400160405280600681526020017f7a6f6d62696500000000000000000000000000000000000000000000000000008152506111fc565b6110fd565b600183600201600a9054906101000a900461ffff166110989190612524565b83600201600a6101000a81548161ffff021916908361ffff16021790555060018260020160089054906101000a900461ffff166110d59190612524565b8260020160086101000a81548161ffff021916908361ffff1602179055506110fc836118cf565b5b505050505050565b61110d611398565b73ffffffffffffffffffffffffffffffffffffffff1661112b610c4a565b73ffffffffffffffffffffffffffffffffffffffff1614611181576040517f08c379a0000000000000000000000000000000000000000000000000000000008152600401611178906123bc565b60405180910390fd5b600073ffffffffffffffffffffffffffffffffffffffff168173ffffffffffffffffffffffffffffffffffffffff16036111f0576040517f08c379a00000000000000000000000000000000000000000000000000000000081526004016111e790612608565b60405180910390fd5b6111f9816113a0565b50565b826009600082815260200190815260200160002060009054906101000a900473ffffffffffffffffffffffffffffffffffffffff1673ffffffffffffffffffffffffffffffffffffffff163373ffffffffffffffffffffffffffffffffffffffff161461126857600080fd5b60006008858154811061127e5761127d612152565b5b9060005260206000209060030201905061129781611902565b6112a057600080fd5b600354846112ae9190612453565b9350600060028583600101546112c49190612628565b6112ce919061267e565b90506040516020016112df90612706565b6040516020818303038152906040528051906020012084604051602001611306919061274c565b60405160208183030381529060405280519060200120036113485760636064826113309190612453565b8261133b9190612484565b6113459190612628565b90505b6113876040518060400160405280600681526020017f4e6f4e616d650000000000000000000000000000000000000000000000000000815250826114a9565b611390826118cf565b505050505050565b600033905090565b60008060009054906101000a900473ffffffffffffffffffffffffffffffffffffffff169050816000806101000a81548173ffffffffffffffffffffffffffffffffffffffff021916908373ffffffffffffffffffffffffffffffffffffffff1602179055508173ffffffffffffffffffffffffffffffffffffffff168173ffffffffffffffffffffffffffffffffffffffff167f8be0079c531659141344cd1fd0a4f28419497f9722a3daafe3b4186f6b6457e060405160405180910390a35050565b60008082604051602001611478919061274c565b6040516020818303038152906040528051906020012060001c9050600354816114a19190612453565b915050919050565b60086040518060c00160405280848152602001838152602001600163ffffffff168152602001600454426114dd9190612628565b63ffffffff168152602001600061ffff168152602001600061ffff1681525090806001815401808255809150506001900390600052602060002090600302016000909190919091506000820151816000019080519060200190611541929190611a1e565b506020820151816001015560408201518160020160006101000a81548163ffffffff021916908363ffffffff16021790555060608201518160020160046101000a81548163ffffffff021916908363ffffffff16021790555060808201518160020160086101000a81548161ffff021916908361ffff16021790555060a082015181600201600a6101000a81548161ffff021916908361ffff1602179055505050600060016008805490506115f69190612484565b9050336009600083815260200190815260200160002060006101000a81548173ffffffffffffffffffffffffffffffffffffffff021916908373ffffffffffffffffffffffffffffffffffffffff1602179055506001600a60003373ffffffffffffffffffffffffffffffffffffffff1673ffffffffffffffffffffffffffffffffffffffff168152602001908152602001600020546116969190612628565b600a60003373ffffffffffffffffffffffffffffffffffffffff1673ffffffffffffffffffffffffffffffffffffffff168152602001908152602001600020819055507f88f026aacbbecc90c18411df4b1185fd8d9be2470f1962f192bf84a27d0704b781848460405161170c93929190612763565b60405180910390a1505050565b806007819055505050565b60007f000000000000000000000000000000000000000000000000000000000000000073ffffffffffffffffffffffffffffffffffffffff16634000aea07f0000000000000000000000000000000000000000000000000000000000000000848660006040516020016117989291906127a1565b6040516020818303038152906040526040518463ffffffff1660e01b81526004016117c59392919061281f565b6020604051808303816000875af11580156117e4573d6000803e3d6000fd5b505050506040513d601f19601f82011682018060405250810190611808919061285d565b50600061182b846000306001600089815260200190815260200160002054611929565b905060018060008681526020019081526020016000205461184c9190612628565b600160008681526020019081526020016000208190555061186d8482611965565b91505092915050565b60006001600d546118879190612628565b600d81905550814233600d546040516020016118a5939291906128f3565b6040516020818303038152906040528051906020012060001c6118c89190612453565b9050919050565b600454426118dd9190612628565b8160020160046101000a81548163ffffffff021916908363ffffffff16021790555050565b6000428260020160049054906101000a900463ffffffff1663ffffffff1611159050919050565b6000848484846040516020016119429493929190612930565b6040516020818303038152906040528051906020012060001c9050949350505050565b6000828260405160200161197a929190612996565b60405160208183030381529060405280519060200120905092915050565b8280546119a49061233f565b90600052602060002090601f0160209004810192826119c65760008555611a0d565b82601f106119df57803560ff1916838001178555611a0d565b82800160010185558215611a0d579182015b82811115611a0c5782358255916020019190600101906119f1565b5b509050611a1a9190611aa4565b5090565b828054611a2a9061233f565b90600052602060002090601f016020900481019282611a4c5760008555611a93565b82601f10611a6557805160ff1916838001178555611a93565b82800160010185558215611a93579182015b82811115611a92578251825591602001919060010190611a77565b5b509050611aa09190611aa4565b5090565b5b80821115611abd576000816000905550600101611aa5565b5090565b6000604051905090565b600080fd5b600080fd5b6000819050919050565b611ae881611ad5565b8114611af357600080fd5b50565b600081359050611b0581611adf565b92915050565b600060208284031215611b2157611b20611acb565b5b6000611b2f84828501611af6565b91505092915050565b60008060408385031215611b4f57611b4e611acb565b5b6000611b5d85828601611af6565b9250506020611b6e85828601611af6565b9150509250929050565b600081519050919050565b600082825260208201905092915050565b60005b83811015611bb2578082015181840152602081019050611b97565b83811115611bc1576000848401525b50505050565b6000601f19601f8301169050919050565b6000611be382611b78565b611bed8185611b83565b9350611bfd818560208601611b94565b611c0681611bc7565b840191505092915050565b611c1a81611ad5565b82525050565b600063ffffffff82169050919050565b611c3981611c20565b82525050565b600061ffff82169050919050565b611c5681611c3f565b82525050565b600060c0820190508181036000830152611c768189611bd8565b9050611c856020830188611c11565b611c926040830187611c30565b611c9f6060830186611c30565b611cac6080830185611c4d565b611cb960a0830184611c4d565b979650505050505050565b6000602082019050611cd96000830184611c11565b92915050565b600073ffffffffffffffffffffffffffffffffffffffff82169050919050565b6000611d0a82611cdf565b9050919050565b611d1a81611cff565b8114611d2557600080fd5b50565b600081359050611d3781611d11565b92915050565b600060208284031215611d5357611d52611acb565b5b6000611d6184828501611d28565b91505092915050565b600081519050919050565b600082825260208201905092915050565b6000819050602082019050919050565b611d9f81611ad5565b82525050565b6000611db18383611d96565b60208301905092915050565b6000602082019050919050565b6000611dd582611d6a565b611ddf8185611d75565b9350611dea83611d86565b8060005b83811015611e1b578151611e028882611da5565b9750611e0d83611dbd565b925050600181019050611dee565b5085935050505092915050565b60006020820190508181036000830152611e428184611dca565b905092915050565b611e5381611cff565b82525050565b6000602082019050611e6e6000830184611e4a565b92915050565b6000819050919050565b611e8781611e74565b82525050565b6000602082019050611ea26000830184611e7e565b92915050565b600080fd5b600080fd5b7f4e487b7100000000000000000000000000000000000000000000000000000000600052604160045260246000fd5b611eea82611bc7565b810181811067ffffffffffffffff82111715611f0957611f08611eb2565b5b80604052505050565b6000611f1c611ac1565b9050611f288282611ee1565b919050565b600067ffffffffffffffff821115611f4857611f47611eb2565b5b611f5182611bc7565b9050602081019050919050565b82818337600083830152505050565b6000611f80611f7b84611f2d565b611f12565b905082815260208101848484011115611f9c57611f9b611ead565b5b611fa7848285611f5e565b509392505050565b600082601f830112611fc457611fc3611ea8565b5b8135611fd4848260208601611f6d565b91505092915050565b600060208284031215611ff357611ff2611acb565b5b600082013567ffffffffffffffff81111561201157612010611ad0565b5b61201d84828501611faf565b91505092915050565b61202f81611e74565b811461203a57600080fd5b50565b60008135905061204c81612026565b92915050565b6000806040838503121561206957612068611acb565b5b60006120778582860161203d565b925050602061208885828601611af6565b9150509250929050565b600080fd5b600080fd5b60008083601f8401126120b2576120b1611ea8565b5b8235905067ffffffffffffffff8111156120cf576120ce612092565b5b6020830191508360018202830111156120eb576120ea612097565b5b9250929050565b60008060006040848603121561210b5761210a611acb565b5b600061211986828701611af6565b935050602084013567ffffffffffffffff81111561213a57612139611ad0565b5b6121468682870161209c565b92509250509250925092565b7f4e487b7100000000000000000000000000000000000000000000000000000000600052603260045260246000fd5b7f4e487b7100000000000000000000000000000000000000000000000000000000600052601160045260246000fd5b60006121bb82611c20565b91506121c683611c20565b9250828210156121d9576121d8612181565b5b828203905092915050565b60008115159050919050565b6121f9816121e4565b811461220457600080fd5b50565b600081519050612216816121f0565b92915050565b60008151905061222b81611adf565b92915050565b6000806000806000806000806000806101408b8d03121561225557612254611acb565b5b60006122638d828e01612207565b9a505060206122748d828e01612207565b99505060406122858d828e0161221c565b98505060606122968d828e0161221c565b97505060806122a78d828e0161221c565b96505060a06122b88d828e0161221c565b95505060c06122c98d828e0161221c565b94505060e06122da8d828e0161221c565b9350506101006122ec8d828e0161221c565b9250506101206122fe8d828e0161221c565b9150509295989b9194979a5092959850565b7f4e487b7100000000000000000000000000000000000000000000000000000000600052602260045260246000fd5b6000600282049050600182168061235757607f821691505b60208210810361236a57612369612310565b5b50919050565b7f4f776e61626c653a2063616c6c6572206973206e6f7420746865206f776e6572600082015250565b60006123a6602083611b83565b91506123b182612370565b602082019050919050565b600060208201905081810360008301526123d581612399565b9050919050565b60006123e782611ad5565b91507fffffffffffffffffffffffffffffffffffffffffffffffffffffffffffffffff820361241957612418612181565b5b600182019050919050565b7f4e487b7100000000000000000000000000000000000000000000000000000000600052601260045260246000fd5b600061245e82611ad5565b915061246983611ad5565b92508261247957612478612424565b5b828206905092915050565b600061248f82611ad5565b915061249a83611ad5565b9250828210156124ad576124ac612181565b5b828203905092915050565b7f4f6e6c7920565246436f6f7264696e61746f722063616e2066756c66696c6c00600082015250565b60006124ee601f83611b83565b91506124f9826124b8565b602082019050919050565b6000602082019050818103600083015261251d816124e1565b9050919050565b600061252f82611c3f565b915061253a83611c3f565b92508261ffff0382111561255157612550612181565b5b828201905092915050565b600061256782611c20565b915061257283611c20565b92508263ffffffff0382111561258b5761258a612181565b5b828201905092915050565b7f4f776e61626c653a206e6577206f776e657220697320746865207a65726f206160008201527f6464726573730000000000000000000000000000000000000000000000000000602082015250565b60006125f2602683611b83565b91506125fd82612596565b604082019050919050565b60006020820190508181036000830152612621816125e5565b9050919050565b600061263382611ad5565b915061263e83611ad5565b9250827fffffffffffffffffffffffffffffffffffffffffffffffffffffffffffffffff0382111561267357612672612181565b5b828201905092915050565b600061268982611ad5565b915061269483611ad5565b9250826126a4576126a3612424565b5b828204905092915050565b600081905092915050565b7f6b69747479000000000000000000000000000000000000000000000000000000600082015250565b60006126f06005836126af565b91506126fb826126ba565b600582019050919050565b6000612711826126e3565b9150819050919050565b600061272682611b78565b61273081856126af565b9350612740818560208601611b94565b80840191505092915050565b6000612758828461271b565b915081905092915050565b60006060820190506127786000830186611c11565b818103602083015261278a8185611bd8565b90506127996040830184611c11565b949350505050565b60006040820190506127b66000830185611e7e565b6127c36020830184611c11565b9392505050565b600081519050919050565b600082825260208201905092915050565b60006127f1826127ca565b6127fb81856127d5565b935061280b818560208601611b94565b61281481611bc7565b840191505092915050565b60006060820190506128346000830186611e4a565b6128416020830185611c11565b818103604083015261285381846127e6565b9050949350505050565b60006020828403121561287357612872611acb565b5b600061288184828501612207565b91505092915050565b6000819050919050565b6128a56128a082611ad5565b61288a565b82525050565b60008160601b9050919050565b60006128c3826128ab565b9050919050565b60006128d5826128b8565b9050919050565b6128ed6128e882611cff565b6128ca565b82525050565b60006128ff8286612894565b60208201915061290f82856128dc565b60148201915061291f8284612894565b602082019150819050949350505050565b60006080820190506129456000830187611e7e565b6129526020830186611c11565b61295f6040830185611e4a565b61296c6060830184611c11565b95945050505050565b6000819050919050565b61299061298b82611e74565b612975565b82525050565b60006129a2828561297f565b6020820191506129b28284612894565b602082019150819050939250505056fea2646970667358221220c7093b16a854c8c5628b5f4e3caa690f759faffda5963830ecb9e05a20f0294064736f6c634300080d0033",
  "immutableReferences": {
    "73": [
      {
        "length": 32,
        "start": 5928
      }
    ],
    "75": [
      {
        "length": 32,
        "start": 3189
      },
      {
        "length": 32,
        "start": 5988
      }
    ]
  },
  "source": "// SPDX-License-Identifier: UNLICENSED\npragma solidity >=0.8.0 <0.9.0;\n\nimport \"./ZombieHelper.sol\";\n\ncontract ZombieAttack is ZombieHelper {\n  uint randNonce = 0;\n  uint attackVictoryProbability = 70;\n\n  function randMod(uint _modulus) internal returns(uint) {\n    randNonce = randNonce + 1;\n    return uint(keccak256(abi.encodePacked(block.timestamp, msg.sender, randNonce))) % _modulus;\n  }\n\n  function attack(uint _zombieId, uint _targetId) external onlyOwnerOf(_zombieId) {\n    Zombie storage myZombie = zombies[_zombieId];\n    Zombie storage enemyZombie = zombies[_targetId];\n    uint rand = randMod(100);\n    if (rand <= attackVictoryProbability) {\n      myZombie.winCount = myZombie.winCount + 1;\n      myZombie.level = myZombie.level + 1;\n      enemyZombie.lossCount = enemyZombie.lossCount + 1;\n      feedAndMultiply(_zombieId, enemyZombie.dna, \"zombie\");\n    } else {\n      myZombie.lossCount = myZombie.lossCount + 1;\n      enemyZombie.winCount = enemyZombie.winCount + 1;\n      _triggerCooldown(myZombie);\n    }\n  }\n}\n",
  "sourcePath": "/Users/michaelwon/Documents/Side-Project/CryptoZombies/contracts/ZombieAttack.sol",
  "compiler": {
    "name": "solc",
    "version": "0.8.13+commit.abaa5c0e.Emscripten.clang"
  },
  "schemaVersion": "3.4.6",
  "updatedAt": "2022-04-17T10:49:06.523Z",
  "devdoc": {
    "kind": "dev",
    "methods": {
      "owner()": {
        "details": "Returns the address of the current owner."
      },
      "renounceOwnership()": {
        "details": "Leaves the contract without owner. It will not be possible to call `onlyOwner` functions anymore. Can only be called by the current owner. NOTE: Renouncing ownership will leave the contract without an owner, thereby removing any functionality that is only available to the owner."
      },
      "transferOwnership(address)": {
        "details": "Transfers ownership of the contract to a new account (`newOwner`). Can only be called by the current owner."
      }
    },
    "version": 1
  },
  "userdoc": {
    "kind": "user",
    "methods": {},
    "version": 1
  }
}